:020000040800F2
:1000000000C00120956E00088D0F0008910F0008B8
:10001000950F0008990F00089D0F000800000000D0
:10002000000000000000000000000000A10F000818
:10003000A50F000800000000A90F0008AD0F000880
:10004000DD6E0008DD6E0008DD6E0008DD6E000864
:10005000DD6E0008DD6E000851110008DD6E00083D
:10006000DD6E0008DD6E0008DD6E0008F548000852
:10007000DD6E0008DD6E0008DD6E0008DD6E000834
:10008000DD6E0008DD6E0008DD6E0008DD6E000824
:10009000DD6E0008DD6E0008DD6E0008DD6E000814
:1000A000DD6E0008DD6E0008DD6E0008DD6E000804
:1000B000DD6E0008DD6E0008DD6E0008DD6E0008F4
:1000C000DD6E0008DD6E0008DD6E0008DD6E0008E4
:1000D000DD6E0008DD6E0008DD6E0008DD6E0008D4
:1000E000DD6E0008DD6E000861110008DD6E00089D
:1000F000DD6E0008DD6E0008DD6E0008F1480008C6
:10010000DD6E0008DD6E0008DD6E0008F9480008AD
:10011000DD6E0008DD6E0008DD6E0008DD6E000893
:10012000DD6E0008DD6E0008DD6E0008DD6E000883
:10013000DD6E0008DD6E0008DD6E0008DD6E000873
:10014000DD6E0008DD6E0008DD6E0008911100080C
:10015000DD6E0008DD6E0008DD6E0008DD6E000853
:10016000DD6E0008DD6E0008DD6E0008DD6E000843
:10017000DD6E0008DD6E0008DD6E0008DD6E000833
:08018000DD6E0008DD6E0008D1
:1001880010B5054C237833B9044B13B10448AFF3C9
:1001980000800123237010BDD80500200000000056
:1001A800C0720008084B10B51BB108480849AFF3E6
:1001B80000800848036803B910BD074B002BFBD02B
:1001C800BDE81040184700BF00000000C0720008DA
:1001D800DC050020D405002000000000154B002B92
:1001E80008BF134B9D46A3F5803A00218B460F4666
:1001F8001348144A121A06F0A7FE0F4B002B00D022
:1002080098470E4B002B00D098470020002104008F
:100218000D000D48002802D00C4806F057FF06F0E4
:100228006BFE2000290006F09FFD06F055FE00BF7A
:1002380000000800000000000000000000000000AE
:10024800D8050020400D0020D5700008E170000896
:100258002DE9F04FDFF83CA3BC4EDFF80883DFF848
:1002680008B391B055460024002738463770777098
:1002780003F0A4FF012003F0A1FF022003F09EFF7A
:10028800032003F09BFF07A802F0CCFC089BB04AB0
:10029800A2FB03235B09B3F1807FC0F04B810020F0
:1002A80003F0BEFF012003F0BBFF022003F0B8FFFC
:1002B800032003F0B5FF737803F0FF00002B44D14F
:1002C80003F0BCFF0A23CAF80030DAF80030002B2C
:1002D800FBD1012003F0B2FF0A232B60DAF80030CB
:1002E800002BFBD1022003F0A9FF0A232B60DAF8C8
:1002F8000030002BFBD1032003F0A0FF0A232B6062
:10030800DAF80030002BFBD10134E4B2102CD2D142
:100318002746002003F092FF012003F08FFF022000
:1003280003F08CFF032003F089FF0A23CAF800308A
:10033800DAF80040002CFBD17B1E13F0FF07E8D150
:10034800737803F0FF00002BBAD0002003F0C6FF3B
:100358000128FAD0002704200121777002F0FCFC64
:100368000820012102F0D4FC4FF0020903234FF4C6
:10037800704278488DF80D3002A902928DF80C90E1
:100388008DF80E708DF80F7002F09AF84A46714891
:100398000C2102F02FF94A466E480D2102F02AF985
:1003A8004A466C480E2102F025F94A4669480F2151
:1003B80002F020F9684B694A1B686948ADF8187063
:1003C800A2FB03231B0A013B9BB240F2CF7204A994
:1003D8007380ADF810300592ADF8127003F080F814
:1003E8005F48012103F004F94FF001094FF47A73D3
:1003F80060225B480D930BA9ADF82C20ADF838703E
:10040800ADF82E9003F028F93A463946544803F0DF
:1004180037FB5348082103F089FA51480BA903F028
:100428005DF93A464E48042103F02AFB4C4808215E
:1004380003F084FA4A480BA903F098F93A46484869
:10044800082103F01DFB4648082103F081FA4448BF
:100458000BA903F0D3F93A4641480C2103F010FBED
:100468003F48082103F07CFA49463D4803F0E6F886
:1004780039463A463A4803F003FB3A4638480421DD
:1004880003F0FEFA3A463648082103F0F9FA3A46EC
:1004980033480C2103F0F4FA07234022314888F846
:1004A800023088F8017088F8037088F8047088F8BA
:1004B800002004F0E7FC1E23CAF80030DAF8003008
:1004C800002BFBD101270C23202227488BF8023070
:1004D80037708BF801708BF8002004F0B1FD2348C9
:1004E8002921062204F080FD214B00931F4B21484F
:1004F8001A7893F802E039461F791F4B1A701F4B80
:100508001F4A83F800E01F4B377104F06BFF7378C4
:10051800002BFCD0002003F0E1FE0128FAD00021D6
:10052800194802F0D3FD134806F082F9114805F086
:10053800A9FF99E61548164A013B4360F0210723B5
:1005480082F8231087600360A9E600BFF405002045
:100558001F85EB51000C024020000020D34D621093
:10056800000800403406002044060020380C002013
:1005780064000020480600204706002040060020AE
:10058800480000207C0100200030014010E000E01D
:1005980000ED00E03C06002082B0044A0190019B77
:1005A80013601368002BFCD102B070473C06002092
:1005B800034B1A6812B11A68013A1A60704700BFF3
:1005C8003C06002008B50221582001F0C5FD074867
:1005D800074C4FF0553101F049FE0525022003F084
:1005E8002DFE25602368002BFCD1F7E7FCFF0F08E0
:1005F8003C06002008B5034B1B7803B1FEE7FFF764
:10060800E1FF00BFF405002030B52B4B83B000227A
:100618000321184640241C7099705A70DA701A71B8
:1006280004F030FC254B202118460C2201241970B7
:100638009A705C7004F004FD1E20FFF7ADFF22469F
:100648000DF107000F2104F0CFFC9DF807303B2B7C
:1006580001D0FFF7B7FF1A4D1A4C4FF4FA732B600D
:100668002B681848292104220BB304F0BDFC94F927
:100678000020A378002AB8BF52420F2A5BB204DCDC
:10068800002BB8BF5B420F2BEADD002003F0BAFD58
:10069800002003F023FE0028FAD0002003F01EFEFD
:1006A8000128FAD0002003F0BBFD03B030BDFFF7EE
:1006B80089FF03B030BD00BF340600204406002087
:1006C8003C060020380C00202DE9F0410D2082B0B6
:1006D800012102F01DFB002401252027022669467E
:1006E800D94800978DF804508DF806408DF80740DA
:1006F8008DF8056001F0E4FE3946D34801F06CFF3F
:100708006946D24800954FF400778DF804508DF86B
:1007180006408DF807408DF8056001F0D1FE694666
:10072800CB488DF805608DF804408DF806408DF8AB
:100738000740009701F0C4FE2946C44801F04CFF69
:100748002846FFF729FF3946C14801F02FFF002846
:1007580000F0CA810023022269464FF48064012513
:10076800BB488DF804308DF806308DF805200094CC
:100778008DF8075001F0A4FE2846FFF70DFF21462B
:10078800B34801F013FF002800F0BA81AF480121F7
:1007980001F020FF01244FF4C05300250227AC4884
:1007A800009369464FF400768DF804508DF8065092
:1007B8008DF807408DF8057001F082FEA4488DF889
:1007C800065069468DF804408DF807408DF805708D
:1007D800009601F075FE31469D4801F0FDFE204669
:1007E800FFF7DAFE9A484FF4006101F0DFFE0028B7
:1007F80000F0778196484FF4805101F0D7FE002829
:1008080000F06F81012400254FF480564FF0020854
:100818008F48009669464FF400678DF804508DF8AC
:1008280006508DF807408DF8058001F049FE88488C
:100838008DF8065069468DF804408DF807408DF80C
:100848000580009701F03CFE3946814801F0C4FE5E
:100858002046FFF7A1FE31467D4801F0A7FE00289B
:1008680000F04B81012400254FF400664FF0020888
:100878007748009669464FF480578DF804508DF8F4
:1008880006508DF807408DF8058001F019FE704874
:100898008DF8065069468DF804408DF807408DF8AC
:1008A8000580009701F00CFE3946694801F094FE76
:1008B8002046FFF771FE3146654801F077FE0028B3
:1008C80000F018810122002402234FF400756048CB
:1008D8008DF8042069468DF8053000958DF806409E
:1008E8008DF8074001F0ECFD5948294601F072FEE9
:1008F800204603F087FC002003F0F0FC0028FAD023
:10090800002003F0EBFC0028FAD103F089FC5048E2
:100918004FF4007101F060FE4B48202101F05AFEAF
:100928004B484FF4806101F041FE002840F0DF8021
:100938004FF4C05300260225454800936946012418
:100948004FF400778DF804608DF806608DF8075035
:100958008DF8055001F0B4FD3D488DF806606946F4
:100968008DF8055000978DF804408DF8074001F088
:10097800A7FD3946364801F02DFE2046FFF70CFE4C
:1009880033484FF4006101F011FE002800F0A38005
:100998002F484FF4805101F009FE002800F09B8099
:1009A8004FF49053002602252948009369460124F4
:1009B8004FF400678DF804608DF806608DF80750D5
:1009C8008DF8055001F07CFD21488DF806606946D8
:1009D8008DF8055000978DF804408DF8074001F018
:1009E8006FFD39461A4801F0F5FD2046FFF7D4FDA2
:1009F80017484FF4007101F0D9FD00286ED0144853
:100A08004FF4805101F0D2FD002867D04FF42063E5
:100A1800002602250E480093694601244FF48057AA
:100A28008DF804608DF806608DF807508DF8055034
:100A380001F046FD06488DF8066069468DF80550B8
:100A480000978DF8044005E0000C024000080240C1
:100A5800000002408DF8074001F032FD39462A486F
:100A680001F0B8FD2046FFF797FD27484FF40071C5
:100A780001F09CFD28B124484FF4006101F096FD77
:100A880008B9FFF79FFD002502244FF4C0536946BB
:100A98001D4800934FF400768DF804508DF80650E9
:100AA8008DF807408DF8054001F00AFD01236946DD
:100AB80015488DF804308DF807308DF806508DF8FC
:100AC8000540009601F0FCFC31460F4801F084FD1A
:100AD80002B0BDE8F081FFF775FD61E7FFF772FD31
:100AE80094E7FFF76FFD8DE6FFF76CFD32E6FFF741
:100AF80069FD1DE7FFF766FDE4E6FFF763FDB1E674
:100B0800FFF760FD42E600BF000002402DE9F04F0C
:100B18004FF4807085B0012102F02AF901214FF4C9
:100B2800007002F025F9012003F080FD0220572112
:100B38004BF6803203F06EFF002840F05281AC4B38
:100B4800DFF8CC92AB4CAC4EAC4FAD4D4FF000083B
:100B58004FF470624FF440311846DA605960C3F8B8
:100B68000080C3F8088084F8008000F03DFD484606
:100B780000F030FD4FF0010A4FF000734946A148DC
:100B8800C9F8003089F8048089F80580C9F8088018
:100B9800C9F8108089F814A000F0F4FC49469A4876
:100BA80000F0F0FC4FF0030904234FF0020B02A9F8
:100BB80096488DF80F8002938DF80C908DF80DB043
:100BC80001F07EFC082302A99048029301F078FC0A
:100BD8004B46594652468B48A4F80280A4F8048034
:100BE80000F054FD4B4649465246874800F04EFDFA
:100BF8005146844800F012FD5146834800F00EFD2E
:100C08004FF4FA73A0463360B9463368002B00F0FE
:100C1800D8807C4800F080FD7A48022100F05EFE12
:100C28000028F9D0774800F0A7FD034676482B80C6
:100C380000F072FD7448022100F050FE0028F9D03F
:100C4800714800F099FD38802B889BB2962B0FD9FC
:100C5800B9F800309BB2092B0AD863889BB2B3F568
:100C6800FA7F05D0B8F8023001339BB2A8F80230F9
:100C78002B889BB2092B0ED83B889BB2962B0AD99E
:100C8800A3889BB2B3F5FA7F05D0B8F804300133D6
:100C98009BB2A8F8043063889BB2B3F5FA7FB4D14D
:100CA800B8F804309BB2B3F5FA7FAED155480021AD
:100CB80000F0B4FC5448002100F0B0FC03F008FD3B
:100CC800022003F0B3FC022064214BF6803203F0CB
:100CD800A1FE002840F088804FF001090023494612
:100CE8004848638084F80090A380444F444DDFF85F
:100CF800048100F093FC4946434800F08FFC4FF410
:100D0800FA73B94633603368002B67D03D4800F06A
:100D180003FD3C48022100F0E1FD0028F9D03948E4
:100D280000F02AFD034638482B8000F0F5FC3648D1
:100D3800022100F0D3FD0028F9D0334800F01CFD53
:100D480038802B889BB2AA2B0FD9B9F800309BB2F8
:100D5800AA2B0AD963889BB2B3F5FA7F05D0B8F8F5
:100D6800023001339BB2A8F802302B889BB2092BC2
:100D78000ED83B889BB2092B0AD8A3889BB2B3F53F
:100D8800FA7F05D0B8F8043001339BB2A8F80430D4
:100D980063889BB2B3F5FA7FB5D1B8F804309BB23B
:100DA800B3F5FA7FAFD1002003F02CFA002003F04E
:100DB80095FA0028FAD0002003F032FA05B0BDE811
:100DC800F08F19460F48019300F028FC019B0E484C
:100DD800194600F023FCFFF7F5FB6FE7FFF7F2FB7E
:100DE800E1E7FFF7EFFBAAE6FFF7ECFB74E700BFCC
:100DF8006C0C0020FA0500203C0600207C0C00202A
:100E0800400C002000200140002101400000024069
:100E1800440C0020F0B54FF4804087B0012101F068
:100E28009BFF06AE0620012101F072FF4FF480639C
:100E380046F8183D00250223314601272D488DF834
:100E480004308DF806508DF807708DF8057001F0A4
:100E580037FB05222748284C0A2101F0CBFB082341
:100E680031462648009301F02BFB03210522234835
:100E780001F0C0FB224802F03DF84FF47A464FF4E7
:100E8800407310221E48ADF8083002A9ADF80A20B8
:100E98000496ADF80C50ADF81450ADF80E5002F0B1
:100EA80087F83946164802F01FF90A20FFF774FB45
:100EB8004FF4FA7323604FF6FF76236813B914E0F2
:100EC80023682BB10E48012102F0C6F90028F7D09B
:100ED8000B4802F083F9B04204BF0135EDB21D2D75
:100EE800EBD91E2D01D107B0F0BDFFF76BFB07B0A2
:100EF800F0BD00BF000402403C060020000802408C
:100F080000380040704700BF704700BF184B1A7880
:100F18008AB9D98830B4E1B1164C174D2088411CE4
:100F280089B23029218035F8100008BF22800022BC
:100F3800DA8030BC704719890F484A1C92B230F8E1
:100F480011001A81302A80F40040F3D100221A815E
:100F580070471889084C421C92B21A81302A4FF007
:100F6800010234F8100008BF1981DA80E1E700BFF8
:100F7800FA05002004000020B0710008FEE700BF59
:100F8800FEE700BF704700BFFEE700BFFEE700BFF7
:100F9800FEE700BFFEE700BF704700BF704700BF15
:100FA800704700BF614B1B7883B32DE9F041604D5A
:100FB800604C95F902200023901C6370A3701ADB23
:100FC800022A95F90020C4BFF9236370911C18DA2E
:100FD8000722A2700BB9A37823B1574855490422B8
:100FE80004F0BEFA2379534F0133DBB20A2B237185
:100FF8000ED0BDE8F08195F900200723911C63709D
:10100800E6DB022AC4BFF922A270E3E7FFF7D0BAF1
:1010180000263146324649482E70AE7002F030FD47
:1010280032464648DFF80881042102F029FD32469D
:101038004248082102F024FD324640480C2102F0C3
:101048001FFD40462921062203F0CEFF3C4A3D4BB6
:10105800107819782A78AB78121A5B1AD2B2DBB2F8
:1010680059B256B2002986EAE670B8BF4942A0EBE9
:10107800E670C9B2C0B2814238BF01467971797948
:101088002A70AB7091B1B31C40DB022E30DC95F9AD
:101098000230274D022B1BDC02330BDB6379274818
:1010A80040F2CF7191FBF3F102F07EFA0023237135
:1010B800BDE8F08121480821012202F0E1FC6379B2
:1010C8001E484FF47A7191FBF3F102F007FCE5E753
:1010D8001A480021012202F0D3FC637917484FF423
:1010E8007A7191FBF3F102F0F5FB95F90230D3E741
:1010F80012480421012202F0C3FC63790F484FF41F
:101108007A7191FBF3F102F0E7FBC0E70B480C2181
:10111800012202F0B5FC7B7908484FF47A7191FB03
:10112800F3F102F0DDFB98F90060AEE7F40500206A
:10113800380C00200806002048060020000800405F
:1011480047060020400600200123024A1846137073
:1011580000F018BFF505002010B5094CA37A4BB173
:10116800084A136923F00603136100F013F82046B8
:1011780005F078F94FF48020BDE8104000F002BF78
:101188004806002000ED00E0014805F081BB00BFE3
:10119800480600203D4B3E481A68002142F00102F3
:1011A8001A6099601A6822F0847222F480321A60F8
:1011B80058601A6882B022F480221A60D9600091BF
:1011C80001911A6842F480321A601A4603E0009BC3
:1011D800B3F5A06F09D0136803F400330193009BA3
:1011E80001330093019B002BF1D0284B1B6813F4AB
:1011F800003318BF01230193019B012B14D0234A0C
:101208002449936823F400039360C2F88410136898
:1012180043F08063136013681B01FCD51E4B4FF02D
:1012280000629A6002B07047184B1C491A6C1C483F
:1012380042F080521A640A6842F480420A609A684E
:101248009A609A6842F400429A609A6842F4A052FE
:101258009A6058601A6842F080721A601A461168DB
:101268000A4B8901FBD50F4A40F2056111609A6863
:1012780022F003029A609A6842F002029A601A46C3
:10128800936803F00C03082BFAD1B8E70038024042
:10129800103000240030005000ED00E000700040E5
:1012A80008544007003C02401848836803F00C03C8
:1012B800042B28D0082B09D0154B144A15499268DD
:1012C800C2F303128A5CD3400B61704743684168DC
:1012D80013F4800F436818BF0F4801F03F020CBF9A
:1012E8000B49B0FBF2F1C3F3881308BFB1FBF2F16D
:1012F80001FB03F2054B5B68C3F3014301335B0059
:10130800B2FBF3F3D9E7044BD7E700BF003802403C
:101318000024F4001000002000127A00F0B501202B
:101328002A4D83B0014601F0F3FC0026022303276F
:10133800284669464FF4D8528DF8043000928DF84B
:1013480005708DF806608DF8076001F0B9F8284639
:1013580008210A2201F04EF9284609210A2201F043
:1013680049F928460B210A2201F044F928460A22A5
:101378000C2101F03FF901244FF4806369462846A7
:1013880000938DF805708DF806408DF8074001F040
:1013980097F80A210A46284601F02CF921464FF40D
:1013A800804001F0E5FC2146802001F0BDFC21468B
:1013B8004FF0805001F00CFD3046214602F04EFF00
:1013C800204600F0DFFD03B0F0BD00BF0000024082
:1013D80000B54FF4C06083B002F08CFE01234321B6
:1013E800032201A88DF804108DF805308DF8073018
:1013F8008DF8062002F088FE03B05DF804FB00BFFC
:10140800C0EB0010064BC200A3FB0213D21A03EB79
:1014180052029208002301339A42FCD2704700BF5F
:1014280025499224074A084B02FB00F0A3FB00233E
:10143800C21A03EB52029208002301339A42FCD2EB
:10144800704700BFC0D401002549922412230B80A5
:10145800004870472400002004230B800048704790
:101468003800002010B5044C04480A46214604F010
:1014780011FB204610BD00BF000D0020407200087F
:1014880008B50A4628B10648064904F003FB054892
:1014980008BD0548034904F0FDFA024808BD00BF2D
:1014A80068720008000D00205472000808B50A464A
:1014B80028B10648064904F0EDFA054808BD054874
:1014C800034904F0E7FA024808BD00BF8C7200081F
:1014D800000D00207C72000810B5044C04480A4630
:1014E800214604F0D7FA204610BD00BF000D0020A9
:1014F8009C72000810B5044C04480A46214604F0C2
:10150800C9FA204610BD00BF000D0020A8720008CF
:101518000B4B0C4A1B68A2FB03231B09B3F1807F0A
:1015280000D3FEE730B4084A084CF025013B53606D
:10153800002084F823500721906030BC1160704768
:1015480020000020ABAAAAAA10E000E000ED00E00D
:10155800704700BF704700BF704700BF704700BFAB
:10156800704700BF704700BF08B54FF48070012175
:1015780001F03AFC4FF480700021BDE8084001F00A
:1015880033BC00BFF0B544680A6891F804C0D1F8CC
:101598000CE00E698D684F790D4B24F0407424F4EB
:1015A8008074224342EA0C22426084684EEA0602B2
:1015B8002A432340134343EA470383600A7DC36AEF
:1015C800013AD2B223F4700343EA0253C362F0BD76
:1015D800FDF7FFC000230122027503600371437108
:1015E8008360C3600361704770B490E84400064D9F
:1015F8008468C168054B6868324322430A43034044
:1016080013436B6070BC704700230140E030FCFF5F
:101618000023036043608360C3607047836819B91F
:1016280023F001038360704743F001038360704730
:10163800436823F4400323F400731943416070475F
:1016480041628262704700BF436823F01F03194359
:1016580041607047054A536818B923F40003536082
:10166800704743F400035360704700BF00230140F4
:10167800054A536818B923F480035360704743F44C
:1016880080035360704700BF00230140092970B4EC
:101698001CD9A1F10A0404EB4404C5680726A64036
:1016A800A34025EA06042343062AC3601AD90C2A54
:1016B80025D90D3AC46A02EB82021F23934024EA1B
:1016C800030391401943C16270BC704701EB4106A6
:1016D80005690724B440B34025EA04042343062AD5
:1016E8000361E4D8013A446B02EB82021F23934062
:1016F80024EA030391401943416370BC7047073AD9
:10170800046B02EB82021F23934024EA03039140F7
:101718001943016370BC7047836843F0804383605A
:10172800704700BF8068C0F380507047836819B95C
:1017380023F480638360704743F480638360704759
:10174800836819B923F002038360704743F00203EA
:10175800836070474368013923F4604343EA4131A9
:1017680041607047436819B923F4006343607047C8
:1017780043F4006343607047C06C80B2704700BF99
:10178800014B1868704700BF08230140836819B9E6
:1017980023F480738360704743F4807383607047D9
:1017A800836819B923F400738360704743F40073A6
:1017B80083607047054A536818B923F4005353608F
:1017C800704743F400535360704700BF0023014043
:1017D800092970B41AD801EB410605690724B440F9
:1017E800B34025EA040423430361836B0232C3F345
:1017F8000154121BD2B202EB82021F24944023EA46
:10180800040391401943816370BC7047A1F10A0435
:1018180004EB4404C5680726A640A34025EA06044D
:101828002343C360E1E700BF836B013923F440130E
:1018380043EA01518163704782B00023019301900C
:10184800019B19440191019B1A6002B0704700BFC7
:10185800836823F47023194381607047836823F4F5
:101868004013194381607047836843F480038360A1
:10187800704700BF8068C0F380507047436819B94B
:1018880023F480634360704743F480634360704788
:10189800436819B923F480534360704743F4805375
:1018A8004360704782B0002301930190019B283365
:1018B80019440191019B186880B202B0704700BFBB
:1018C800C9B201238B4022B9426822EA030343606C
:1018D8007047426813434360704700BF036819426A
:1018E80014BF012000207047C9430160704700BF42
:1018F8004268006810EA112006D0C9B201238B4063
:10190800134214BF01200020704700BF6FEA112165
:101918000160704708B54FF00050012101F058FAF6
:101928004FF000500021BDE8084001F051BA00BF57
:10193800F0B491E8C000094D8C68CB682A6847EA82
:1019480006010C4340F6FE7123438140834022EA9E
:10195800010213432B60F0BC704700BF00740040C5
:101968000023036043608360C360704739B9074947
:1019780001230A68834022EA03030B607047034986
:1019880001230A68834013430B60704700740040CA
:1019980041B9084900094A680123834022EA030340
:1019A8004B607047034900094A6801238340134389
:1019B8004B60704700740040054A536818B923F01B
:1019C80003035360704743F003035360704700BF3D
:1019D8000074004032B9064A1368814023EA0101C5
:1019E80011607047024A13688140194311607047BB
:1019F8000074004082B00022054B01920193019BC4
:101A0800083318440190019B196002B0704700BF69
:101A18000074004082B00022054B01920193019BA3
:101A2800143318440190019B196002B0704700BF3D
:101A3800007400400828044B0CBF42EA012242EA25
:101A48000142C250704700BF2074004082B000229B
:101A5800064B01920193019B2C3303EB90000190FC
:101A6800019B186880B202B0704700BF0074004044
:101A780041B908494FF480530A68834022EA0303B6
:101A88000B60704703494FF480530A68834013433F
:101A98000B6070470074004032B9064A13688140F1
:101AA80023EA010111607047024A13688140194313
:101AB8001160704700740040034B5B6B8140194212
:101AC80014BF01200020704700740040014B814082
:101AD8005963704700740040054B1A685B6B81407E
:101AE80011EA030003D0114214BF012000207047FF
:101AF80000740040014B81405963704700740040F6
:101B080002683749002310B422F0010221248842D8
:101B18000260036043608360C360036144614DD029
:101B2800304B984235D0304B984239D02F4B9842A1
:101B38003DD02F4B984247D02E4B984248D02E4B41
:101B480098421DD02D4B98421ED02D4B984243D021
:101B58002C4B98421DD02C4B984221D02B4B9842AD
:101B680025D02B4B98422FD02A4B984230D02A4B65
:101B7800984205D0294B984206D05DF8044B70472F
:101B8800274A43F8942CF8E74FF03D5243F8AC2C21
:101B9800F3E74FF4746243F8202C5DF8044B704768
:101BA8004FF4741243F8382C5DF8044B70474FF02B
:101BB800746243F8502C5DF8044B7047194B5DF87C
:101BC800044B3D229A607047174A43F8642CD4E7C7
:101BD800164A43F87C2CD0E73D2243F8082CCCE782
:101BE8001060024028600240406002405860024095
:101BF8007060024088600240A0600240B860024005
:101C08001064024028640240406402405864024064
:101C18007064024088640240A0640240B8640240D4
:101C280000003D20006002403D000020400F0020E1
:101C38002DE9F04182B08B6A0193CB684F698E69B8
:101C4800CD690C6A4A6AD0F800C0DFF850E09846BF
:101C58000B6848EA030848EA07073E4335432C4324
:101C6800019B0E6B0D69224313434A6B4C68134367
:101C78008A6B0CEA0E0E134343EA0E0303604269B3
:101C8800CB6A896822F007023343134343614560F6
:101C98008460C16002B0BDE8F08100BF3F801CF0E5
:101CA8000023036043608360C36003614361836111
:101CB800C361036243628362C362036343638363F2
:101CC800704700BF036819B923F001030360704728
:101CD80043F0010303607047036819B923F4004314
:101CE8000360704743F4004303607047036819B901
:101CF80023F020030360704743F02003036070471C
:101D080041607047406880B2704700BF036822B9DD
:101D180023F4002303600161704743F40023036048
:101D280001617047036819B923F480230360704781
:101D380043F48023036070470AB9C16070470161AA
:101D4800704700BF0068C0F3C0407047006800F0EB
:101D580001007047406900F0380070470B4B0C4A8F
:101D680010B40C4CA04294BF184610468B004CBFD0
:101D7800436803685DF8044B21F0F02121F08211DB
:101D8800194214BF01200020704700BF00600240C4
:101D9800006402400F64024010B4094B094C0A4A1F
:101DA800A04294BF1846104611F0005F21F0F021C0
:101DB80021F0821114BFC16081605DF8044B704747
:101DC800006002400F640240006402400B060CD51C
:101DD8004369AAB143F08003802943610FD00368A7
:101DE80001F01E01194301607047802907D0002ABD
:101DF800F5D1036801F01E0123EA01010160704773
:101E080023F0800380294361F3D1704770B4104AEE
:101E1800104E114C21F0F02323F0C315B04298BFA7
:101E280014468DB1006800F01E0000EAD122890036
:101E38004CBF6068206823F08213184002D0101C41
:101E480018BF012070BC7047406900F08002EEE7BF
:101E5800006002400F6402400064024010B4094B65
:101E6800094C0A4AA04294BF1846104611F0005F78
:101E780021F0F02121F0821114BFC16081605DF86A
:101E8800044B7047006002400F6402400064024047
:101E9800044B054900221A605A609A60DA60596159
:101EA800704700BF003C0140FFFF7F00837933B3D8
:101EB8001C4B02794179F0B404681E68E7433E4040
:101EC8001E605D6802F1804202F59E323D405D6011
:101ED80015682C43146002689C68D5432C409C60AC
:101EE800D868102900EA0500D86013D001F18043B2
:101EF80003F59E33F0BC19680A431A6070470379EA
:101F0800016803F1804303F59E331A6822EA01024F
:101F18001A607047996811439960D9680A43DA6072
:101F2800F0BC7047003C014000230C224271036062
:101F380003718371704700BF024A13691843106127
:101F4800704700BF003C0140034B5B69184214BF57
:101F580001200020704700BF003C0140014B586140
:101F6800704700BF003C0140054B1A685B6903409D
:101F780004D0104214BF0120002070471846704753
:101F8800003C0140014B5861704700BF003C0140D4
:101F9800014BC0B218707047003C0240054A1368F4
:101FA80018B923F480731360704743F48073136087
:101FB800704700BF003C0240054A136818B923F473
:101FC80000731360704743F400731360704700BFD9
:101FD800003C0240054A136818B923F48063136073
:101FE800704743F480631360704700BF003C0240B1
:101FF800024A136843F4006313607047003C0240D0
:10200800024A136843F4805313607047003C02404F
:10201800044B1A69002A03DA0349044A59605A60D2
:10202800704700BF003C024023016745AB89EFCDF4
:10203800024A136943F0004313617047003C0240B1
:10204800044B5A69D20703D50349044A99609A6038
:10205800704700BF003C02403B2A19087F6E5D4C68
:10206800024A536943F0010353617047003C024040
:10207800044B1A7802F0F3021A701A781043187099
:10208800704700BF143C0240024B5869C0F3471028
:10209800704700BF003C0240014B188880B270476F
:1020A800163C0240024B1878AA3818BF0120704726
:1020B800153C0240024B187800F00C00704700BF36
:1020C800143C0240044A136919B923EA000010615C
:1020D8007047184310617047003C0240034BDB68AF
:1020E800184214BF01200020704700BF003C024086
:1020F800014BD860704700BF003C02400B4BDA68C8
:10210800D1030AD4DA68D20601D505207047DA6807
:1021180012F0EF0F03D00620704701207047DB68EC
:1021280013F0020F14BF072008207047003C02403C
:1021380000B583B008238DF80730FFF7DFFF8DF86F
:1021480007009DF80730012BF7D09DF80700C0B2B3
:1021580003B05DF804FB00BF70B5064659B301290A
:102168002FD002290CBF4FF400744FF44074FFF7CE
:10217800DFFF082824D1144D2B6923F440732B6109
:102188002969214329612B6923F0F8032B612B6905
:1021980043F002031E432E612B6943F480332B6105
:1021A800FFF7C6FF2B6923F002032B612B6923F08D
:1021B800F8032B6170BD0C46FFF7BAFF0828DAD088
:1021C80070BD4FF48074F7E7003C024038B5044610
:1021D800FFF7AEFF3CB1012C08D0022C0CBF4FF426
:1021E80000744FF44074082804D038BD08284FF410
:1021F8008074FAD10B4D2B6923F440732B612B6942
:102208001C432C612B6943F004032B612B6943F4B5
:1022180080332B61FFF78CFF2B6923F004032B61BC
:1022280038BD00BF003C0240F8B5054616461F46BB
:10223800FFF77EFF082800D0F8BD0B4C236923F474
:1022480040732361236943F440732361236943F096
:1022580001032361C5E90067FFF76AFF236923F0DB
:1022680001032361F8BD00BF003C024070B505467C
:102278000E46FFF75DFF082800D070BD0A4C2369A1
:1022880023F440732361236943F4007323612369B2
:1022980043F0010323612E60FFF74AFF236923F00F
:1022A8000103236170BD00BF003C024070B50546C4
:1022B8000E46FFF73DFF082800D070BD0A4C236981
:1022C80023F440732361236943F4807323612369F2
:1022D80043F0010323612E80FFF72AFF236923F0CF
:1022E8000103236170BD00BF003C024070B5054684
:1022F8000E46FFF71DFF082800D070BD094C236962
:1023080023F44073236123692361236943F00103A4
:1023180023612E70FFF70CFF236923F0010323616B
:1023280070BD00BF003C024038B505460C46FFF7BB
:10233800FFFE082800D038BD054B18881CB9284373
:1023480080B2188038BD80B220EA0500188038BDF8
:10235800163C024010B50446FFF7EAFE082804BF01
:10236800014B1C7010BD00BF153C024070B50646FD
:102378000C461546FFF7DCFE082807D1044B1978F0
:1023880001F00F01314329432143197070BD00BF8B
:10239800143C0240034A137843F002031370FFF71A
:1023A800C7BE00BF143C024008B53C4B984224D03D
:1023B8003B4B98422BD03B4B984232D03A4B9842F9
:1023C80039D03A4B984240D0394B984247D0394B94
:1023D80098424ED0384B984255D0384B984200D04E
:1023E80008BD4FF48070012100F0CEFC4FF48070DE
:1023F8000021BDE8084000F0C7BC0120014600F0FC
:10240800C3FC01200021BDE8084000F0BDBC02204B
:10241800012100F0B9FC02200021BDE8084000F0CD
:10242800B3BC0420012100F0AFFC04200021BDE86A
:10243800084000F0A9BC0820012100F0A5FC0820F4
:102448000021BDE8084000F09FBC1020012100F0E9
:102458009BFC10200021BDE8084000F095BC20201E
:10246800012100F091FC20200021BDE8084000F087
:102478008BBC4020012100F087FC40200021BDE8F2
:10248800084000F081BC8020012100F07DFC802004
:102498000021BDE8084000F077BC00BF0000024002
:1024A8000004024000080240000C024000100240F4
:1024B8000014024000180240001C024000200240A4
:1024C80000222DE9F0431346D1F800E001274FF030
:1024D800030C04E00133102B02F1020228D007FAA2
:1024E80003F404EA0E05A542F4D1D0F800800E7971
:1024F8000CFA02F4E44304EA0808C0F80080D0F8B3
:10250800008006FA02F9013E49EA0808012EC0F8DF
:1025180000800FD9C568CE792C40C460C56806FA1A
:1025280002F401332C43102BC46002F10202D6D10D
:10253800BDE8F083D0F8089091F805808E7904EA18
:102548000909C0F80890D0F8089008FA02F848EA93
:102558000908C0F80880D0F8048028EA0505456015
:10256800D0F8048006FA03F5ADB245EA08054560DF
:10257800D0E700BF00234FF6FF720260037143717A
:102588008371C371704700BF82B04FF480330193E9
:10259800019B0B430193019BC361C161019BC36113
:1025A800C3690193C369019302B070470369194273
:1025B80014BF012000207047006980B2704700BF37
:1025C8004369194214BF012000207047406980B256
:1025D800704700BF01837047418370470AB9418340
:1025E80070470183704700BF416170474369594094
:1025F80041617047CB0800EB830001F0070110B47C
:102608008900046A0F238B4024EA03030362036AE8
:102618005DF8044B8A4013430362704708B5174BB3
:10262800984212D0164B98421BD0164B984200D0B5
:1026380008BD4FF40000012100F0CAFB4FF4000070
:102648000021BDE8084000F0C3BB4FF40010012191
:1026580000F0BEFB4FF400100021BDE8084000F078
:10266800B7BB4FF48000012100F0B2FB4FF48000AB
:102678000021BDE8084000F0ABBB00BF005400409B
:1026880000580040005C0040F0B5054685B068463B
:102698000E46AC8800F0C6FA029B32483268DFF872
:1026A800CCE0A0FB031024F03F042404800C240C8D
:1026B80087B23C43AC80298821F001010904090C48
:1026C8007245298024D85200B3FBF2F39BB2032B46
:1026D80007F1010798BF04232F84AB8328887789E3
:1026E800B2883489B18980B240F0010028802B88F3
:1026F80023F4816323F002031B043A431B0C1343A6
:1027080044EA01029BB292B22B802A8105B0F0BD47
:10271800F4884BF6FF718C421DD002EB820202EB6B
:102728008202B3FBF2F39BB243F48043C3F30B0280
:102738000AB943F001034FF496710B4C01FB00F208
:1027480084FB0201D217C2EBA112013292B243F408
:1027580000432A84C1E702EB4202B3FBF2F39BB2C7
:10276800E4E700BF83DE1B43D34D6210A08601005F
:10277800002310B44BF6FF7141F288344FF48042C5
:102788000460C18082818380038143815DF8044BAA
:10279800704700BF038829B923F001031B041B0CF1
:1027A800038070479BB243F001030380704700BF6A
:1027B800038829B923F480731B041B0C038070471A
:1027C8009BB243F480730380704700BF038829B924
:1027D80023F400731B041B0C038070479BB243F463
:1027E80000730380704700BF22B901F0FE0189B26F
:1027F8000182704741F0010189B20182704700BF30
:10280800038829B923F480631B041B0C03807047D9
:102818009BB243F480630380704700BF83899BB2F7
:1028280001F0FE0123F0FE0319438181704700BFC8
:10283800838929B923F001031B041B0C838170478A
:102848009BB243F001038381704700BF038829B915
:1028580023F040031B041B0C038070479BB243F01A
:1028680040030380704700BF038819B9C3F30E0300
:10287800038070476FEA43436FEA53439BB2038078
:10288800704700BF038829B123F080031B041B0C89
:10289800038070479BB243F080030380704700BFFA
:1028A800B1F5804F838B05D023F480431B041B0CA8
:1028B800838370479BB243F480438383704700BF90
:1028C800B1F5006F038805D023F400631B041B0CCB
:1028D800038070479BB243F400630380704700BFD6
:1028E800B1F5005F038805D023F400531B041B0CCB
:1028F800038070479BB243F400530380704700BFC6
:10290800038829B923F010031B041B0C03807047AC
:102918009BB243F010030380704700BF01827047E9
:10292800008AC0B2704700BF038829B923F48053D6
:102938001B041B0C038070479BB243F48053038035
:10294800704700BFB1F5006F038805D023F400631A
:102958001B041B0C038070479BB243F40063038085
:10296800704700BF038829B923F020031B041B0C00
:10297800038070479BB243F020030380704700BF79
:10298800008BC0F307207047838829B923F40063BC
:102998001B041B0C838070479BB243F40063838045
:1029A800704700BF838829B923F480531B041B0C8C
:1029B800838070479BB243F480538380704700BF85
:1029C80082B0002301930190019B19440191019B5E
:1029D800188880B202B0704783889BB21AB923EA7C
:1029E800010181807047194381807047838A008B79
:1029F8009BB243EA004321F07F401840081AB0FA1E
:102A080080F04009704700BF838A028B98B240EA81
:102A1800024020F07F40704782B000230A0F0093E5
:102A2800019301900092009B21F07F4153B1019BDB
:102A380014330193019B1B68194214BF0120002025
:102A480002B07047019B1833090C0193F2E700BFED
:102A5800C94389B2818270478388808A80B20840DE
:102A68009BB206D001F0E06113EA114314BF0120C4
:102A780000207047C94389B2818270470A4B0B48CE
:102A88001A68002142F001021A6099601A6822F05F
:102A9800847222F480321A6058601A6822F4802204
:102AA8001A60D960704700BF003802401030002417
:102AB800024B00221A701870704700BF023802409B
:102AC80082B000230A4A019302E0B3F5A06F08D050
:102AD800136813F4003F019B03F101030193019B69
:102AE800F3D0034B1868C0F3404002B0704700BFF2
:102AF80000380240034A136823F0F80343EAC00091
:102B08001060704700380240014B1860704700BFE2
:102B180000004742064B002201281A701A7005D09F
:102B2800042802D105221A70704770471870704740
:102B380070380240014B1860704700BF800E474252
:102B480030B4029C064D40EA046001435B08013B37
:102B580041EA821242EA0340686030BC704700BF15
:102B680000380240014B1860704700BF60004742C0
:102B78000907034B41EA8010C3F88400704700BF7F
:102B880000380240014B1860704700BF6800474298
:102B9800014B1860704700BF4C004742034A9368D6
:102BA80023F0EC63194308439060704700380240F3
:102BB800034A936823F078431943084390607047A9
:102BC80000380240034A936823F0030318439060D7
:102BD800704700BF00380240024B986800F00C00B4
:102BE800704700BF00380240034A936823F0F0039F
:102BF80018439060704700BF00380240034A93684A
:102C080023F4E05318439060704700BF0038024037
:102C1800034A936823F4604343EAC0009060704716
:102C28000038024010B4214CA36803F00C03042BB5
:102C38001BD0082B1CD01E4B03601C4A1D499468EE
:102C4800C4F303140C5DE34043609468C4F3822426
:102C58000C5D23FA04F4846092685DF8044BC2F3B7
:102C680042328A5CD340C3607047134B0360E4E789
:102C78006368616813F4800F636818BF0E4C01F035
:102C88003F020CBF0A49B4FBF2F1C3F3881308BF33
:102C9800B1FBF2F101FB03F2044B5B68C3F30143A0
:102CA80001335B00B2FBF3F30360C6E70038024070
:102CB8000024F4008000002000127A0000F4407321
:102CC800B3F5407F09D108498B6820F0704223F49E
:102CD800F81322F4407213438B60034A136FC0F356
:102CE8000B0018431067704700380240014B18600A
:102CF800704700BF3C0E4742014B1860704700BF49
:102D0800400E4742014B1860704700BF5C014742C4
:102D1800044A136B19B923EA00001063704718437B
:102D28001063704700380240044A536B19B923EA0C
:102D380000005063704718435063704700380240E2
:102D4800044A936B19B923EA00009063704718434B
:102D58009063704700380240044A136C19B923EA9B
:102D68000000106470471843106470470038024030
:102D7800044A536C19B923EA000050647047184399
:102D88005064704700380240044A136919B923EAAD
:102D98000000106170471843106170470038024006
:102DA800044A536919B923EA00005061704718436F
:102DB8005061704700380240044A936919B923EA00
:102DC80000009061704718439061704700380240D6
:102DD800044A136A19B923EA0000106270471843BD
:102DE8001062704700380240044A536A19B923EA4E
:102DF8000000506270471843506270470038024024
:102E0800044A136D19B923EA000010657047184386
:102E18001065704700380240044A536D19B923EA17
:102E280000005065704718435065704700380240ED
:102E3800044A936D19B923EA000090657047184356
:102E48009065704700380240044A136E19B923EAA6
:102E5800000010667047184310667047003802403B
:102E6800044A536E19B923EA0000506670471843A4
:102E78005066704700380240044A137819B923EAAB
:102E88000000107070471843107070470D380240EA
:102E98004309012B0BD0022B094B0CBF1A6F5A6F39
:102EA80000F01F0322FA03F000F001007047044B02
:102EB8001A6800F01F0322FA03F000F001007047BF
:102EC80000380240024A536F43F0807353677047DB
:102ED80000380240034BDB68184214BF0120002071
:102EE800704700BF00380240014B1870704700BFA0
:102EF8000E38024008B5174B984212D0164B98422C
:102F08001BD0164B984200D008BD4FF40040012159
:102F1800FFF75EFF4FF400400021BDE80840FFF7CF
:102F280057BF4FF480500121FFF75EFF4FF48050E8
:102F38000021BDE80840FFF757BF4FF4804001214A
:102F4800FFF746FF4FF480400021BDE80840FFF737
:102F58003FBF00BF0030014000380040003C004047
:102F68002DE9F0410B88B1F80280B1F804C0CA8895
:102F7800B1F808E04F898E89CC890588098A48EA22
:102F8800030343EA0C03134343EA0E033B4333436F
:102F980043EA040205F4415313439BB20380838B35
:102FA80023F400631B041B0C83830182BDE8F081BA
:102FB800828B8B6822F47B6222F00F0212042DE9C7
:102FC800F043120C022482830484B0F81CE0A3426C
:102FD8001FFA8EFE51D02F4A8F889468002F14BF95
:102FE8004FF0020C4FF0010C240241D4294ACE883C
:102FF800D2F88450D2F884405268DFF8A080C5F334
:103008008815B6F5007F02F03F09C4F30272B8FBD9
:10301800F9F405FB04F4B4FBF2F431D04FEA4C1296
:10302800B4FBF2F202EB82025200B2FBF3F3053377
:103038009AB2194BA3FB0223DB085A08941E03F02B
:103048000103FD2C94BF42EA032302230C884A881B
:1030580089894EEA040E4EF4006E4EEA02020A43D3
:10306800334392B29BB2174303848783BDE8F0834E
:10307800946824F400049460B8E78F88CE88E5E764
:10308800240A04EB84046400B4FBF3F305339AB216
:10309800CFE700BF00380240CDCCCCCC00127A007C
:1030A800002307220282038043808380C380038138
:1030B80043818381C3817047002302228260038099
:1030C80043808380C3808381704700BF038829B908
:1030D80023F040031B041B0C038070479BB243F092
:1030E80040030380704700BF838B29B923F48063B2
:1030F8001B041B0C838370479BB243F48063838358
:10310800704700BF038823F400631B041B0C038073
:1031180003889BB219430180704700BFB1F5804F07
:10312800038805D023F480431B041B0C03807047DD
:103138009BB243F480430380704700BF4FF6FF63A0
:103148009942038804D09BB243F48073038070478C
:1031580023F480731B041B0C03807047838829B9F0
:1031680023F004031B041B0C838070479BB243F0BD
:1031780004038380704700BF838829B923F01003B4
:103188001B041B0C838070479BB243F010038380A1
:10319800704700BF838B23F47B6323F00F031B046A
:1031A80002221B0C83830284838B8A8970B44D8826
:1031B8000C888E889BB22B4324F4007143F400637F
:1031C800334389B2134300299BB20CBF4FF480727A
:1031D80000221343838370BC704700BF808980B28C
:1031E800704700BF81817047038829B923F40053D1
:1031F8001B041B0C038070479BB243F400530380ED
:10320800704700BF03889BB243F480530380704724
:10321800012914BF008B808A80B27047008A80B26F
:10322800704700BF83889BB21AB923EA01018180E5
:103238007047194381807047090901238B409BB26D
:103248002AB9828892B222EA03038380704782886F
:1032580092B21343838070470389194214BF012037
:1032680000207047C94389B20181704710B484882F
:103278000389012201F00F009BB202FA00F0184006
:10328800A4B205D009098A40144214BF01200020C5
:103298005DF8044B704700BF01F00F0101238B401C
:1032A800DB439BB20381704708B54FF4804001218E
:1032B800FFF79AFD4FF480400021BDE80840FFF772
:1032C80093BD00BF014B1860704700BF0038014034
:1032D80001F0FC0303F1804303F59C3301F0030183
:1032E80010B489009C680F228A4024EA02029A607E
:1032F8009A685DF8044B884002439A60704700BFA3
:10330800014B1860704700BFDC002742014B186072
:10331800704700BF00042742024B186AC0F3002020
:10332800704700BF0038014008B5604B984235D05F
:10333800B0F1804F3CD05E4B984243D05D4B9842F1
:103348004AD05D4B984251D05C4B984258D05C4B68
:1033580098425FD05B4B984266D05B4B98426DD0E9
:103368005A4B984276D05A4B98427FD0594B984244
:1033780000F08880584B984200F08E80574B984256
:1033880000D008BD4FF480700121FFF721FD4FF4F4
:1033980080700021BDE80840FFF71ABD01200146F2
:1033A800FFF722FD01200021BDE80840FFF71CBD02
:1033B80001200146FFF70CFD01200021BDE808406F
:1033C800FFF706BD02200121FFF702FD02200021C0
:1033D800BDE80840FFF7FCBC04200121FFF7F8FC1A
:1033E80004200021BDE80840FFF7F2BC08200121B5
:1033F800FFF7EEFC08200021BDE80840FFF7E8BC15
:1034080010200121FFF7E4FC10200021BDE808404E
:10341800FFF7DEBC20200121FFF7DAFC2020002185
:10342800BDE80840FFF7D4BC02200121FFF7DCFC0F
:1034380002200021BDE80840FFF7D6BC4FF48030D9
:103448000121FFF7D1FC4FF480300021BDE808408E
:10345800FFF7CABC4FF400300121FFF7C5FC4FF459
:1034680000300021BDE80840FFF7BEBC4FF48020C3
:103478000121FFF7B9FC4FF480200021BDE8084086
:10348800FFF7B2BC40200121FFF7A2FC4020002139
:10349800BDE80840FFF79CBC80200121FFF798FC9D
:1034A80080200021BDE80840FFF792BC00000140E1
:1034B8000004004000080040000C004000100040DC
:1034C8000014004000040140004001400044014055
:1034D8000048014000180040001C00400020004047
:1034E800224A038890429BB212D002F58062904231
:1034F8000ED0B0F1804F0BD0A2F58032904207D0A9
:1035080002F58062904203D002F58062904203D1B6
:103518004A8823F070031343154A90421ED002F5DF
:10352800806290421AD00A8970B423F440730F4C19
:103538004E680D889BB21343A0420380C66205857E
:1035480006D00C4B984203D00123838270BC70478D
:103558008B7A03860123838270BC704703800B88B3
:103568004A68C262038501238382704700000140D4
:10357800001000400004014000234FF0FF32426079
:103588000380038143808372704700BF0185828274
:10359800704700BF038823F070031B041B0C1943FA
:1035A8000180704741627047C1627047406A704746
:1035B800008D80B2704700BF038829B923F0020349
:1035C8001B041B0C038070479BB243F0020303806B
:1035D800704700BF038829B923F004031B041B0CA0
:1035E800038070479BB243F004030380704700BF19
:1035F800038829B923F080031B041B0C0380704740
:103608009BB243F080030380704700BF038823F018
:1036180008031B041B0C038003889BB21943018019
:10362800704700BF038823F440731B041B0C0380FE
:1036380003889BB219430180704700BF038829B9EA
:1036480023F001031B041B0C038070479BB243F05B
:1036580001030380704700BFF0B5048CB1F802C0C5
:103668008B890F881B4E24F001042404240C048445
:10367800058CB0F804E0048B25F0020524F07302F1
:103688002D042D0C4CEA030312042B43120CB042F8
:103698009BB21FFA8EF442EA070208D00E4DA842E8
:1036A80005D089688480028341630384F0BDCE8994
:1036B800B1F812E00D8A8F8823F0080324F44074CF
:1036C80033434EEA050523F004032C433B43A4B2DD
:1036D800E7E700BF0000014000040140F0B5058C99
:1036E8000C88B1F80CC0B1F802E01E4E25F01005A8
:1036F8002D042D0C0584028C8788058B22F020036D
:103708001B0425F4E6421B0C120443EA0C13120CAA
:1037180043EA0E1342EA0422B0429BB2BDB294B20D
:1037280008D0114A904205D08A6885800483826354
:103738000384F0BD23F08002CB89B1F810E08F88B4
:103748004E8A92B242EA031225F440654FF6BF73DF
:10375800134045EA8E0543EA071345EA86059BB2FE
:10376800ADB2E1E70000014000040140F0B5058C6E
:10377800B1F80CC0B1F802E00C881E4F25F4807532
:103788002D042D0C0584028C8688858B22F4007309
:103798001B0425F073021B0C43EA0C23120443EAB2
:1037A8000E23120CB8429BB2B5B244EA020408D008
:1037B800114A904205D08A6885808483C263038455
:1037C800F0BD23F40062CB89B1F810E08F884E8AEF
:1037D80092B242EA032225F440554FF6FF331340D4
:1037E80045EA0E1543EA072345EA06159BB2ADB232
:1037F800E1E700BF0000014000040140028CB1F87D
:1038080002C022F480521204120C2DE9F041B1F8E2
:103818000C80B1F800E00284058C8788828B124EF8
:1038280025F4005422F4E6432404240C1B0444EA3F
:1038380008341B0C44EA0C3443EA0E23B042A4B209
:10384800BAB29BB209D0094DA84206D089688280D5
:10385800838301640484BDE8F0810D8A22F48042E8
:1038680042EA851292B2F1E70000014000040140EB
:10387800002303804380838083608381C381038224
:103888004382704710B4048C0123A4B28B4024EA0D
:10389800030321F00804038418307CB10439C1F310
:1038A8004E0148F6FF730C5823400B5012020B5878
:1038B8005DF8044B92B21A430A50704749084FF614
:1038C8008F7344582340435043585DF8044B1A43C0
:1038D800425070474163704781637047C1637047C6
:1038E80001647047038B23F070031B041B0C1943FE
:1038F80001837047038B23F4E0431B041B0C43EA4A
:10390800012189B201837047838B23F070031B0464
:103918001B0C194381837047838B23F4E0431B04FA
:103928001B0C43EA012189B281837047038B23F082
:1039380008031B041B0C194301837047038B23F4F2
:1039480000631B041B0C43EA012189B20183704701
:10395800838B23F008031B041B0C194381837047D6
:10396800838B23F400631B041B0C43EA012189B2F7
:1039780081837047038B23F004031B041B0C19433A
:1039880001837047038B23F480631B041B0C43EAF9
:10399800012189B201837047838B23F004031B0440
:1039A8001B0C194381837047838B23F480631B04AA
:1039B8001B0C43EA012189B281837047038B23F0F2
:1039C80080031B041B0C194301837047038BC3F34B
:1039D8000E0343EA012189B201837047838B23F0E8
:1039E80080031B041B0C194381837047838BC3F32B
:1039F8000E0343EA012189B281837047038C23F0C7
:103A080002031B041B0C194301847047038C23F029
:103A180008031B041B0C194301847047038C23F013
:103A280020031B041B0C43EA011189B2018470476F
:103A3800038C23F080031B041B0C43EA011189B299
:103A480001847047038C23F400731B041B0C43EAA6
:103A5800012189B201847047038C23F400631B049D
:103A68001B0C43EA012189B201847047038C23F4BB
:103A780000531B041B0C43EA013189B201847047CF
:103A880010B4048C0123A4B28B4024EA03030384FA
:103A9800038C5DF8044B8A4013439BB20384704740
:103AA80010B4048C0423A4B28B4024EA03030384D7
:103AB800038C5DF8044B8A4013439BB20384704720
:103AC8000B88F0B5002B32D0042B57D0082B00F010
:103AD8008380028C4F88B1F804E00E89CD8822F4E7
:103AE80080521204120C0284848B028C24F44071DC
:103AF80022F4005309055B04090D5B0C41EA0E2111
:103B080043EA073341EA06319BB243F4805389B252
:103B180081830384828B22F440621204120C828314
:103B2800838B9BB243EA05239BB28383F0BD028C4F
:103B38004E888D880B89CC8822F001021204120C61
:103B48000284028B018C92B222F0F30221F00A0166
:103B580042EA0313090446F001029BB2090C2B4305
:103B6800114303830184038B23F00C031B041B0CF8
:103B78000383038B9BB21C430483F0BD058C4F88E1
:103B88008E88B1F808E0CC8825F010010904090CEA
:103B98000184028B018C22F440731B051B0D8AB231
:103BA80043EA0E3322F0A0029BB242EA071243EA2C
:103BB800062392B29BB242F0100203830284038B65
:103BC80023F440631B041B0C0383038B9BB243EA5F
:103BD80004239BB20383F0BD068C4F888D880A8925
:103BE800CC8826F480710904090C0184818B038C2C
:103BF80089B29BB221F0F30123F4206341EA021257
:103C080043EA072392B29BB243F480732A43828328
:103C18000384838B23F00C031B041B0C8383838B8B
:103C28009BB21C438483F0BD002301228280038061
:103C38004380C38003817047B1F802C00B88F0B598
:103C4800B1F804E0BCF1000F0CBF02240024BEF15F
:103C5800010F0CBF02250125002B4BD0038C0E89C8
:103C6800C98823F010031B041B0C0384028B078CE8
:103C780022F440731B051B0DBAB243EA063322F047
:103C8800A0029BB242EA0C1243EA0E2392B29BB204
:103C980042F0100203830284038B23F440631B0465
:103CA8001B0C0383038B9BB243EA01239BB2038360
:103CB800038C23F001031B041B0C0384038B028C6D
:103CC8009BB223F0F30392B243EA061622F00A03EA
:103CD80043F00103B6B21C432E4306830484038BCE
:103CE80023F00C031B041B0C0383038B9BB21943A7
:103CF8000183F0BD038C0F89CE8823F001031B04D8
:103D08001B0C0384018B038C89B221F0F30123F08F
:103D18000A0341EA07111B044CF0010289B21B0C8B
:103D2800134341EA0E0EA0F818E00384038B23F036
:103D38000C031B041B0C0383038B9BB233430383C9
:103D4800038C23F010031B041B0C0384028B018CCF
:103D580022F440731B051B0D8AB243EA073322F095
:103D6800A0029BB242F0100243EA052542EA04147D
:103D780005830484038B23F440631B041B0C038317
:103D8800038B9BB243EA0626B6B20683F0BD00BF9A
:103D9800406B7047806B7047C06B7047006C704712
:103DA800038B23F00C031B041B0C0383038B9BB2B4
:103DB80019430183704700BF038B23F440631B043E
:103DC8001B0C0383038B9BB243EA012189B2018355
:103DD800704700BF838B23F00C031B041B0C8383E9
:103DE800838B9BB219438183704700BF838B23F475
:103DF80040631B041B0C8383838B9BB243EA012122
:103E080089B28183704700BFF0B50B88B1F802E032
:103E18008F88CE880D894C898A894EEA03033B43F3
:103E280033432B43234313439BB2A0F84430F0BDE4
:103E38000023038043808380C3800381438183817F
:103E4800704700BFB0F8443021B9C3F30E03A0F89F
:103E5800443070476FEA43436FEA53439BB2A0F87C
:103E680044307047838829B923F004031B041B0CD2
:103E7800838070479BB243F004038380704700BF80
:103E8800838829B923F001031B041B0C8380704726
:103E98009BB243F001038380704700BF83899BB2C4
:103EA8001AB923EA0101818170471943818170475A
:103EB80081827047038A194214BF0120002070478D
:103EC800C94389B201827047038A828911EA0300D3
:103ED80092B203D0114214BF01200020704700BFE6
:103EE800C94389B2018270470A43A0F84820704745
:103EF80083899BB21AB923EA01018181704719436A
:103F080081817047838829B923F008031B041B0C9F
:103F1800838070479BB243F008038380704700BFDB
:103F2800038923F007031B041B0C0381704700BFA0
:103F3800038923F070031B041B0C194301810389B7
:103F48009BB243F007030381704700BF602930B478
:103F5800048C24D024F001042404240C0484048B4D
:103F6800058CA4B224F0F304ADB244F0010425F0AA
:103F78000A0544EA031345F001049BB22243038374
:103F88000284038923F070031B041B0C0B43038179
:103F980003899BB243F00703038130BC704724F0C8
:103FA80010042404240C0484048B058C24F4407429
:103FB8002405ADB2240D25F0A00544F4807445F025
:103FC800100544EA033345EA02129BB292B2038316
:103FD8000284D6E710B4048942EA0323E4B22343F7
:103FE8009BB21943018103895DF8044B23F07703E1
:103FF8001B041B0C43F077030381704710B404893A
:1040080042EA0323E4B223439BB2194301810389A3
:104018005DF8044B9BB243F480430381704700BFB3
:10402800038923F070031B041B0C1943018170479B
:10403800838823F070031B041B0C838083889BB246
:1040480019438180704700BF038923F007031B04CD
:104058001B0C038103899BB219430181704700BF80
:10406800038923F080031B041B0C038103899BB283
:1040780019430181704700BF10B40489E4B2214399
:104088000A4342EA032399B201815DF8044B704761
:1040980070B40689048B058C24F4407424F003045E
:1040A800ADB225F0220526F0070624042A4336047B
:1040B800240C360C44F4807442EA0313314344F070
:1040C80001049AB201810483028470BC704700BF66
:1040D800838829B923F080031B041B0C8380704755
:1040E8009BB243F080038380704700BFA0F8501054
:1040F800704700BF40F0BF60024B40F40030D8600A
:10410800704700BF00ED00E0C3785BB9037818483A
:104118005A09203203F01F03012101FA03F340F882
:1041280022307047134BF0B4D96845788278047808
:104138000F4EC943C1F30221C1F10407FFB20F2397
:10414800BD400B411340E9B20B4304F1604202F554
:1041580061421B01DBB282F800330378012203F0CD
:104168001F015B098A4046F82320F0BC704700BF56
:1041780000E100E000ED00E021F0604121F07F0166
:10418800014B08439860704700ED00E0044A13694A
:1041980019B923EA0000106170471843106170478D
:1041A80000ED00E0044A136804280CBF43F0040340
:1041B80023F004031360704710E000E030B50F4CA3
:1041C800054683B054F82000012104EB4504FEF7AE
:1041D8009FFD0B4A238A52F82500009302220123EF
:1041E800002469468DF804308DF807308DF80640B4
:1041F8008DF80520FEF764F903B030BD1072000891
:1042080090000020044B054A03EB400352F820209D
:104218001B8A1383704700BF1072000890000020AB
:10422800044B054A03EB400352F820201B8A5383B2
:10423800704700BF1072000890000020054B064A26
:1042480052F8202003EB40005369018A4B40536128
:10425800704700BF107200089000002030B5044677
:10426800012087B00D460146FEF752FD4FF480400D
:104278000121FEF77DFD184806A900EB8400012303
:10428800002441F8103D00698DF80C408DF80F406E
:10429800FEF716F9012D01D007B030BD21462046A2
:1042A800FFF716F8082304A88DF8153004958DF843
:1042B80014408DF81650FDF7F9FD0F23062201A8CA
:1042C8008DF807508DF804208DF805308DF80630EC
:1042D800FFF71AFF07B030BD9000002008B5044B67
:1042E80003EB800001210069FEF760F908BD00BFFB
:1042F8009000002008B5074810210022FEF76EF94B
:1043080044F6FF73013BFDD1024810210122FEF75C
:1043180065F908BD000C024070B58D4C4FF496133A
:1043280006460D46236005E023685A1E2260002BCE
:1043380000F0018187484FF40031FEF76DFB00283B
:10434800F2D184480121FEF733FA4FF480532360F9
:1043580005E023685A1E2260002B00F0EC807D489F
:104368007D49FEF743FB0028F3D07A4894210022C8
:10437800FEF73AFA4FF48053236005E023685A1E8B
:104388002260002B00F0D78072487449FEF72EFB9C
:104398000028F3D06F483146FEF7C0FA4FF4805337
:1043A800236005E023685A1E2260002B00F0C380BA
:1043B80068486B49FEF71AFB0028F3D06548294680
:1043C800FEF7ACFA4FF49613236005E023685A1EF3
:1043D8002260002B00F0B9805E486249FEF71CFBA2
:1043E8000028F3D05B480121FEF7F0F94FF496134B
:1043F800236005E023685A1E2260002B00F09F808E
:1044080054484FF40031FEF707FB0028F2D1514819
:104418000121FEF7CDF94FF48053236005E02368AE
:104428005A1E2260002B00F08A804A484A49FEF74B
:10443800DDFA0028F3D0474894210022FEF7D4F98A
:104448004FF48053236004E023685A1E2260002B37
:1044580075D040484149FEF7C9FA0028F4D03146E2
:104468003C48FEF75BFA4FF48053236004E023686E
:104478005A1E2260002B62D036483A49FEF7CCFA21
:104488000028F4D033480121FEF792F94FF4805305
:10449800236004E023685A1E2260002B4FD02D4869
:1044A8002D49FEF7A3FA0028F4D02A4894210122C6
:1044B800FEF79AF94FF48053236004E023685A1EEC
:1044C8002260002B3BD0234E27493046FEF7A4FA42
:1044D8000028F3D030460021FEF792F9304601213A
:1044E800338BFEF773F94FF48053236003E023689E
:1044F8005A1E22601BB317481C49FEF78DFA002884
:10450800F5D01448FEF70CFA4FF4805306462360A2
:10451800104A03E02368591E216083B113889B0564
:10452800F8D40C480121FEF76BF90A481049FEF748
:104538008FFA304605E0BDE87040FCF721BDFCF776
:104548001FFD281A18BF012070BDFCF719FD43E7AD
:10455800A40000200054004001000300820007006E
:104568008000070004000010020000104000001046
:1045780000040010193038B5C4B221462020FFF7D6
:10458800CBFE214605462120FFF7C6FE284438BD4C
:1045980070B5234C6068A168FDF7E0FB00282FD0B8
:1045A800E568002D2DD060681D4DFDF7CFFB002874
:1045B800F9D16868A9681B4EFDF7EEFBEA681A4B4B
:1045C800316899604FF6FF74A24228BF2246194607
:1045D80068681A61FDF72CFB68680121FDF772FB1A
:1045E800EB68326868689C4228BF1C4602EB4402AC
:1045F8001C1B3260EC600121BDE87040FDF762BB16
:1046080070BD60682946FDF75DFB6068A168FDF72D
:10461800C3FB044B29461868BDE87040FCF772BC20
:10462800A4000020840C0020C40C00201D4B2DE9A0
:10463800F04118611A69012A1FD0022801D0BDE88B
:10464800F081194EDFF884C0184F194D194C1A48DB
:104658001A491B4A5E604FF000084FF4001E0B26F3
:10466800CCF80080C3F814E09F61DE619D601C6295
:1046780058629962DA62BDE8F081124A5A60DFF83E
:104688004CC0114F4FF000084FF4001E2F264FF07A
:1046980020554FF010544FF001504FF008514FF093
:1046A8000452DDE7A4000020106002400C740040B2
:1046B80020000010100000100100801008000010F9
:1046C80004008010B86002400C3C00401006002036
:1046D8002DE9F0412F4E304DF369DFF8C4802F4F9C
:1046E80082B0002468468DF800308DF801408DF8BE
:1046F80002408DF80340FFF707FD21467068FDF77B
:10470800E1FA7068FDF7FCF9FFF7F4FD01210220DA
:10471800FFF702FE694628464FF4A05300938DF830
:1047280004408DF805408DF806408DF80740FDF7E8
:10473800C7FE1023694640460093FDF7C1FE404678
:1047480022460421FDF756FF284622460A21FDF796
:1047580051FF224628460C21FDF74CFF802369466D
:1047680028460093FDF7ACFE062228460721FDF7F0
:1047780041FF21463846FEF7B7FC3846FEF7BAFB3C
:1047880021464FF40040FEF7E7FA204602B0BDE8A4
:10479800F08100BFA400002000080240003C004057
:1047A8000000024070B520B3204D04202979FFF79E
:1047B800B3FD297904460420FFF7AEFD9E21044489
:1047C8000220FFF7A9FD241801D0012070BD184E62
:1047D800022130460122FEF725FD164B01215868BB
:1047E800FDF770FAB08B00F4806085B2C5B1204641
:1047F80070BDFF210420FFF78FFD01210446022030
:10480800FFF78AFD0419E0D1224609480221FEF784
:1048180009FD084B21465868FDF754FA204670BD3B
:1048280030460121FEF760FC284670BD10060020C6
:10483800003C0040A400002070B5FF21044604207D
:10484800FFF76AFD022C26D002209F21FFF764FDA6
:1048580040F6FF720446013AFDD112481021FDF7D7
:10486800BDFE0CB1012070BD0F4D21466868FDF7F3
:1048780029FA2E6AAA686B6AA96A686832431343E0
:104888001943FDF789FA09482146FEF72DFC2B6BE1
:10489800EB60204670BD20469F21FFF73DFD044692
:1048A800DFE700BF000C0240A4000020003C0040ED
:1048B800642809D8054BC0EB002083FB0023C017F0
:1048C800C0EB6310C0B255E6642053E61F85EB5178
:1048D800012803D0034B042019791DE50420FF218A
:1048E8001AE500BF1006002052E600BF50E600BFE0
:1048F80008B50C480221FEF7AFFC58B10A4B1B69FA
:10490800022B08D0FCF702FBBDE808400146054829
:10491800FEF768BC08BDFCF7F9FA01460420FDF76C
:1049280069F8EFE7003C0040A400002070B5124C85
:10493800124B25690646012D0A4660689E6011D013
:1049480019461A61FDF774F960680121FDF7BAF993
:104958000B48838B5B0500D570BD0121BDE8704015
:10496800FEF7C2BB4A0819461A61FDF761F960688B
:104978002946FDF7A7F9EBE7A4000020C40C0020A6
:10498800003C004070B50D4EB1F5802F0C463163E8
:1049980034BF89084FF6FF710546FFF7C7FF316B33
:1049A800074A4FF6FF738B4228BF0B46C3EB5404EC
:1049B80005EB4305F4601560002070BDA4000020DD
:1049C800840C002010B5114886B00121FEF7A0F92B
:1049D8004FF000500121FEF7BFF9002410220323F5
:1049E80069460B4800928DF804308DF80740FDF7B2
:1049F80067FD204602A9029403940594FCF798FFEA
:104A080020460121FCF7B2FF06B010BD01002000CE
:104A1800000002402DE9F047642988B0174600F2EB
:104A28000F81BB4BC1EB012183FB0123C917C1EBEC
:104A380063115FFA81F84FF0100A08200121FEF790
:104A480067F9022600244FF001090DEB0A01B1486D
:104A5800CDF810A08DF814908DF815608DF81640DB
:104A68008DF81740FDF72CFD49460720FEF750F951
:104A78004FF410730DEB0A01A74804938DF81460E6
:104A88008DF815608DF816908DF81740FDF718FD14
:104A9800A148A24D06210422FDF7ACFD04229E4840
:104AA8000921FDF7A7FD4FF4A0530DEB0A019C481F
:104AB80004938DF814608DF815608DF816408DF804
:104AC8001740FDF7FDFC974804210622FDF792FDEB
:104AD80093480A210622FDF78DFD2B69B34200F0A9
:104AE800D3809048CDF810A00DEB0A01FDF7E8FC43
:104AF8008B480C210622FDF77DFD802302244FF010
:104B080000098748049304A98DF814408DF81540CE
:104B18008DF816908DF81790FDF7D2FC0622804884
:104B2800814E0721FDF766FDFFF7E4FB01214FF4F5
:104B38000010FEF711F97D48FDF770FD4BF6FF7A7E
:104B48004FF0330C4FF4806E4FF48042784B774827
:104B5800ADF818C00121ADF81AE0ADF81C20049397
:104B6800ADF81490ADF816A0FDF714FE6F4804A92F
:104B7800FDF78AFD20460121FFF7CEFBAF21044651
:104B88000420FFF7C9FBAF230444812105203371BA
:104B9800FFF7C2FB042104440620FFF7BDFB0444D1
:104BA8004046FFF7E7FC2B69022B00F091809E211D
:104BB8000220FFF7B1FB002104440A20FFF7ACFBF9
:104BC8002B69022B044404D00E200421FFF7A4FB18
:104BD800044400212720FFF79FFB0F2104441F20D6
:104BE800FFF79AFB0A2104441A20FFF795FB0A21D4
:104BF80004441B20FFF790FB012104444FF40040BC
:104C0800FEF7AAF84B48FEF775F94FF000084FF485
:104C180000734848ADF800306946ADF80630029791
:104C2800ADF80280ADF80480ADF80C80FEF7C0F94D
:104C38002B69022B38D034B1012008B0BDE8F087C9
:104C48004FF06408F7E62F69DFF8D080012F73D0A2
:104C58002A69012A57D0FFF7B5FE3648712101228B
:104C6800FEF7EAFA00233321012204A88DF8101078
:104C78008DF811308DF812308DF81320FFF744FAB3
:104C8800002008B0BDE8F08748464946FEF740F8DE
:104C980003232448CDF810A004A98DF817408DF8F7
:104CA8001430FDF70DFC28E74FF000500121FEF706
:104CB80053F8404604A9CDF81080CDF81480CDF8FB
:104CC8001C80FCF735FE40460121FCF74FFEB2E799
:104CD80001210820FFF720FB012180460920FFF76A
:104CE8001BFBC02180440E20FFF716FB44444946B5
:104CF80004441420FFF710FB494604441520FFF72D
:104D08000BFB044453E70B480221FEF78BFAB7E785
:104D18001F85EB51000C024000040240A400002053
:104D28000008024000000240100600200054004025
:104D3800A0860100003C0040D8F814003946FDF771
:104D4800E7FF2146D8F80400FCF7BCFFD8F80400B8
:104D5800FCF7D6FE1D4B3268D8F818101A604FF4CD
:104D6800806C4FF4006E5960D8F804009C601946B6
:104D78004FF400324FF0400A4FF6FE794FF40056D8
:104D88005C615C62DC621C635C639C63C3F80CA0BE
:104D9800C3F81090C3F818C0C3F81CE01E629A62EA
:104DA800FCF746FFD8F8040010213A46FDF70EF844
:104DB800D8F81C308DF8103004A88DF811408DF803
:104DC80012408DF81370FFF79FF941E7C40C0020DB
:104DD80038B5154C4FF480530546236003E023682B
:104DE8005A1E2260E3B111480221FEF735FA002865
:104DF800F5D029460D48FEF7F5F94FF480532360A6
:104E080003E023685A1E226053B108480121FEF7C7
:104E180023FA0028F5D00548FEF7E0F9C0B238BDFE
:104E2800FBF7E8FBC0B238BDD800002000300140D5
:104E3800012A70B504460E46154611484FF0080180
:104E480015D9FDF7C9FB46F04000FFF7C1FF013D4A
:104E5800ADB20135254414F8010BFFF7B9FFAC4298
:104E6800F9D107480821BDE87040FDF7B3BBFDF74D
:104E7800B3FB3046FFF7ACFF002DE8D1F1E700BFE8
:104E8800001002402DE9F04F89B00024804601212E
:104E98004FF480508DF80340FDF76AFF012001466A
:104EA800FDF736FF10200121FDF732FF1020012108
:104EB800FDF72EFF494FDFF828B1DFF828911020C1
:104EC8000121FDF725FF052138460A46FDF792FB2B
:104ED80038460621052208ADFDF78CFB0522384629
:104EE8000721FDF787FB202345F81C3D022638469D
:104EF80029468DF80A408DF808608DF80B608DF80A
:104F08000960FDF7DDFA2946384680230193FDF74D
:104F1800D7FA4023294638460193FDF7D1FA584677
:104F2800FDF7E8FF4FF0080A4FF4007E4FF4827255
:104F3800584603A90727ADF816E0ADF80E20ADF8DE
:104F48000C40ADF81040ADF81240ADF81440ADF883
:104F58001A40ADF81C70ADF818A0FEF701F85846D5
:104F68000121FEF7B3F80127294648468DF80A4083
:104F7800CDF804A08DF809608DF80870FDF7A0FA47
:104F880048465146FDF726FB294648468DF8084015
:104F98008DF80A408DF80B4001978DF80960FDF7F0
:104FA8008FFA294648460196FDF78AFA98F8004094
:104FB80098F8013098F8030098F8041098F802203F
:104FC800234303430B4308A8134300F81D3D202146
:104FD8003A46FFF72DFF09B0BDE8F08F0000024008
:104FE8000030014000100240012A70B504460E4608
:104FF800154612484FF0080116D9FDF7EDFA46F0AC
:10500800C000FFF7E5FE013DADB2013525440020A3
:10501800FFF7DEFE04F8010BAC42F8D1074808217F
:10502800BDE87040FDF7D6BAFDF7D6FA46F0800025
:10503800FFF7CEFE002DE6D1F0E700BF00100240DA
:1050480030B583B002AC002304F8013D05462121A8
:1050580020460122FFF7C8FF68782A78A9789DF8CA
:10506800073002430A4323F02F031343204621212C
:1050780001228DF80730FFF7DBFE03B030BD00BF1B
:1050880030B583B002AC002304F8013D0546382151
:1050980020460122FFF7A8FF69782B78AA780B43EE
:1050A80013432046382101228DF80730FFF7C0FE50
:1050B80003B030BD10B582B0044620210DF10700C1
:1050C8000122FFF791FF9DF8073023F040032343A7
:1050D8000DF10700202101228DF80730FFF7A8FE07
:1050E80002B010BD10B582B0044620210DF10700B2
:1050F8000122FFF779FF9DF8073003F07F03234370
:105108000DF10700202101228DF80730FFF790FEEE
:1051180002B010BD10B582B0044620210DF1070081
:105128000122FFF761FF9DF8073023F02003234396
:105138000DF10700202101228DF80730FFF778FED6
:1051480002B010BD00B583B00DF107002121012286
:10515800FFF74AFF9DF807300DF1070043F04003C1
:10516800212101228DF80730FFF762FE03B05DF8B8
:1051780004FB00BF10B584B02021012204460DF1C4
:105188000700FFF731FF062202A82921FFF72CFFAD
:105198009DF8073003F0200303F0FF029BB182B1B2
:1051A8009DF908109DF90A209DF90C3001EBC10109
:1051B80002EBC20203EBC303C900D200DB0084E8A0
:1051C8000E0004B010BD9DF908109DF90A209DF944
:1051D8000C3001EBC10102EBC20203EBC30349002F
:1051E80052005B0084E80E0004B010BD10B5D0F882
:1051F800E43504461B699847032384F812310020DC
:1052080010BD00BF08B50422D0F8E43580F812219B
:10521800DB689847002008BD08B5D0F8E035DB69A1
:1052280003B19847002008BD08B5D0F8E0351B6ADF
:105238009847002008BD00BF08B5D0F8E0355B6A84
:105248009847002008BD00BF002110B50B46044652
:10525800402201F0FDF9802120464022002301F080
:10526800F7F90122D4F8E43584F81221A0785B68B4
:105278009847002010BD00BF10B582B069460446AB
:1052880000F0D4F99DF8001001F01F03012B18D08D
:1052980010D3022B07D0204601F0800101F06EFAEE
:1052A800002002B010BD2046694600F08DFB0020AA
:1052B80002B010BD2046694600F0F4F9002002B0A3
:1052C80010BD2046694600F065FB002002B010BD05
:1052D80038B5044629B990F81131022B0CD00020BA
:1052E80038BDD0F8E0355B69002BF8D090F8122172
:1052F800032AF4D19847F2E7D0F83421D0F82031C6
:105308009A4210D9C1780129D0F82411A2EB0302DE
:1053180008BFC918C0F8342108BFC0F8241192B2D8
:1053280000F03CF9DBE7D0F83821B2FBF3F503FBDA
:1053380015255DB9934209D8D0F83C319A4205D277
:105348002A4600F02BF9C4F83C51C8E7D4F8E035F8
:10535800DB681BB194F81221032A03D0204600F021
:105368004DF9BCE720469847F8E700BF10B504465A
:1053780029B990F81131032B0CD0002010BDD0F8BA
:10538800E0359B69002BF8D090F81221032AF4D15C
:105398009847F2E7D0F88C23D0F878339A4212D99C
:1053A800C1780129D0F87C13A2EB030204BFC91805
:1053B800C0F87C139A42C0F88C2328BF1A4692B2D0
:1053C80000F004F9D9E7D0F8E0351B691BB190F873
:1053D8001221032A03D0204600F000F9CDE79847B0
:1053E800F9E700BF2DE9F0410446164698460D46F8
:1053F800069FFBF793FF20462946C4F8E085C4F8CA
:10540800E475C4F8E86501F0D7F8D4F8E4351B680A
:1054180098472046BDE8F041FBF7DABF0020704707
:10542800D0F8E03510B504461B689847D4F8E43541
:105438009B689847002010BD08B5D0F8E0355B6838
:105448009847002008BD00BF22230B800048704702
:105458000C01002008B5812101F0CCF9002008BD1D
:1054680038B50C7814F0600405460FD0202C02D013
:105478000024204638BD4B78023B092B34D8DFE89E
:1054880003F02D27333333333333211C4B780A2B66
:105498002ED00B2B0DD0062BEBD14B881B0A222BC1
:1054A80031D0212B29D021462246284600F066F823
:1054B800DFE7184B8A789A60DBE7164B8A781A6020
:1054C8000024D6E74B88134A1B0A53600024D0E710
:1054D8001049012200F052F80024CAE70E490122BF
:1054E80000F04CF80024C4E700F0C2F80224C0E73A
:1054F8000A49012200F042F8BBE7CA880849092A8C
:1055080028BF0922D1E7CA8806494A2A28BF4A2261
:10551800CBE700BF180600201C060020200600204C
:105528001E0100203001002010B58121044601F041
:10553800BFF82046012101F0BBF8002010BD00BFD4
:1055480010B5812104460422032301F081F8204686
:1055580001210422032301F07BF8002010BD00BFC5
:1055680010B590F81241032C01D0002010BD13464D
:105578000A46812101F0DEF8002010BD38B5134637
:1055880002250A46C0F83831C0F8343180F8115184
:10559800002101F0CFF8002038BD00BF08B5134640
:1055A8000A46002101F0C6F8002008BD38B51346A8
:1055B80003250A46C0F89033C0F88C3380F811519F
:1055C800002101F091F8002038BD00BF08B513464E
:1055D8000A46002101F088F8002008BD10B5002116
:1055E800042304460A4680F811310B4601F0A2F85C
:1055F800204600F0F3FE002010BD00BF10B50021CA
:10560800052304460A4680F811310B4601F06CF870
:10561800204600F0E3FE002010BD00BF01EB810131
:1056280000EBC100B0F88803704700BF90F8C83598
:105638000B7090F8C9354B7090F8CB2590F8CA35A7
:1056480003EB02234B8090F8CD2590F8CC3503EB83
:1056580002238B8090F8CF2590F8CE3503EB0223F8
:105668009BB20122CB80C0F83C3180F811217047F1
:1056780010B591F90030002B044609DBCB883BB10B
:10568800002101F07BF82046BDE8104000F0A6BEDE
:105698002046802101F072F82046BDE8104000F055
:1056A8009DBE00BF70B54B7882B00C460546092BED
:1056B8000CD8DFE803F032460B590B05700B871244
:1056C8008B881BB9CB88002B00F08E80284621469A
:1056D800FFF7CEFF002002B070BD8978AA4E0129DD
:1056E8003170F3D890F81231022B00F09880032B18
:1056F800ECD1002900F03C8190F81011012900F04C
:105708002F81FFF799FE317885F810112846FFF7A9
:1057180087FE2846FFF762FFDCE790F81231012286
:10572800023B93424FF00301D0D8D0F81431002B3C
:1057380057D1954B9A60284694490122FFF71EFFDE
:10574800C8E790F81231023B012BBFD84B88012BD8
:10575800C0D1D0F8E03500229B68C0F814219847E2
:105768002846FFF73BFFB5E74B88012B00F0F28096
:10577800022BAFD18B8813F0FF0FABD101691B0A45
:105788004A68013B1046042B00F29580DFE803F0DD
:10579800989D8FA7A2004A88130A013B062B95D82B
:1057A80001A151F823F000BF955800085758000888
:1057B80045580008D5560008D5560008D5560008A3
:1057C800D5560008CA88012A80D190F81231022BD8
:1057D80021D0032B7FF47AAF00F58871FFF7CEFE56
:1057E80078E7694B9960A6E790F812318E78032B19
:1057F80006F07F063FF46AAF80F81361314601F086
:1058080007F82846FFF7EAFE002E00F0AD800223D5
:1058180085F812315EE75E49FFF7B0FE5AE70029C6
:1058280000F09E800121032380F8101180F81231C6
:10583800FFF7F6FD2846FFF7D1FE4BE7D2B2052A5F
:105848003FF644AFDFE802F07D746B625950D0F840
:10585800E03580789B6A0DF1060198470223437072
:105868000146C5F8EC05BDF80620002A3FF432AF22
:10587800E388002B3FF42EAF934228BF13461A4605
:105888002846ADF80630FFF779FE23E7D0F8E8356B
:1058980080781B680DF106019847E388402B014684
:1058A80003D095F81221012ADDD10822E1E703236C
:1058B80063F3061002464A602846FFF78FFE09E7A1
:1058C800012363F306100246F5E7022363F306108B
:1058D8000246F0E7052363F306100246EBE70423CC
:1058E80063F306100246E6E7D0F8E83580789B694E
:1058F8000DF1060198470146B5E7D0F8E8358078FC
:105908005B690DF1060198470146ACE7D0F8E83528
:1059180080781B690DF1060198470146A3E7D0F886
:10592800E8358078DB680DF10601984701469AE76B
:10593800D0F8E83580789B680DF106019847014654
:1059480091E7D0F8E83580785B680DF10601984753
:10595800014688E7D0F8E025C0F8143193689847E5
:105968002846FFF73BFEB5E6012385F81231B1E67C
:10597800022380F8101180F81231FFF75DFD2846E8
:10598800FFF72CFEA6E600BF240600202C06002008
:105998002806002038B590F81231032B044603D1AD
:1059A8000B79012B0D4603D9FFF762FE002038BDA5
:1059B800D0F8E0359B689847EB88002BF6D1204655
:1059C800FFF70CFEF2E700BF70B54B788A88012B11
:1059D8000C460546D6B224D019D3032B15D190F81E
:1059E8001231022B17D0032B3ED14B8823B97306F3
:1059F80002D0314600F0C2FED5F8E03521469B685A
:105A0800284698472846FFF7E9FD002070BD90F822
:105A18001231022B14D17206F7D0314600F0AEFED7
:105A2800F3E790F81231022BF5D0032B1CD14B88E9
:105A3800002BEAD17106E5D0314600F0BDFEDBE768
:105A4800032B11D1130613D406EB860600EBC6060A
:105A580096F87233B3B90D4B0022DA6028460C4928
:105A68000222FFF78BFDD0E7FFF702FE002070BD92
:105A780006F07F0606EB860600EBC60696F81A3196
:105A8800002BE8D0014B0122DA60E7E7240600206A
:105A98003006002000B3037830B4F3B10446002385
:105AA80014F8015F0133DBB2002DF9D15B0002333A
:105AB800DCB2032513800C704D7004785CB10223AE
:105AC80000255A1CD2B2CC548D5410F8014F023321
