:020000040800F2
:10000000000002205D240008C9050008CD05000895
:10001000D1050008D5050008D9050008000000003A
:10002000000000000000000000000000DD050008E6
:10003000E105000800000000E5050008E9050008EA
:10004000A5240008A5240008A5240008A52400086C
:10005000A5240008A5240008ED050008A524000833
:10006000A5240008A5240008A5240008A52400084C
:10007000A5240008A5240008A5240008A52400083C
:10008000A5240008A5240008A5240008A52400082C
:10009000A5240008A5240008A5240008A52400081C
:1000A000A5240008A5240008A5240008A52400080C
:1000B000A5240008A5240008A5240008A5240008FC
:1000C000A5240008A5240008A5240008A5240008EC
:1000D000A5240008A5240008A5240008A5240008DC
:1000E000A5240008A5240008A5240008A5240008CC
:1000F000A5240008A5240008A5240008A5240008BC
:10010000A5240008A5240008A5240008A5240008AB
:10011000A5240008A5240008A5240008A52400089B
:10012000A5240008A5240008A5240008A52400088B
:10013000A5240008A5240008A5240008A52400087B
:10014000A5240008A5240008A5240008A52400086B
:10015000A5240008A5240008A5240008A52400085B
:10016000A5240008A5240008A5240008A52400084B
:10017000A5240008A5240008A5240008A52400083B
:08018000A5240008A5240008D5
:1001880010B5054C237833B9044B13B10448AFF3C9
:1001980000800123237010BD7004002000000000BF
:1001A800F8270008084B10B51BB108480849AFF3F9
:1001B80000800848036803B910BD074B002BFBD02B
:1001C800BDE81040184700BF00000000F8270008ED
:1001D800740400206C04002000000000154B002B64
:1001E80008BF134B9D46A3F5803A00218B460F4666
:1001F8001348144A121A02F08BF90F4B002B00D047
:1002080098470E4B002B00D098470020002104008F
:100218000D000D48002802D00C4802F03BFA02F00D
:100228004FF92000290002F0D9F802F039F900BF8F
:1002380000000800000000000000000000000000AE
:1002480070040020A40400209D260008A9260008A8
:1002580010B5012184B00F4C102000F0C1FF01A897
:1002680001F0F4F90023FF2201A920460292ADF81B
:100278000430ADF80C30ADF8063001F09BF920469B
:10028800202101F03FFF2046012101F041FA04B08E
:1002980010BD00BF001000402DE9F04F254B264E41
:1002A800DFF89CA091B0002404221946102083E8AE
:1002B8001400DC6000F0BCF9304600F0A1FA01251A
:1002C8004FF0200C4FF4806E4FF400524FF48073BF
:1002D800304606940C940E940F9401A94FF0606B6D
:1002E8004FF040084FF400674FF40039134CCDF835
:1002F80014C0CDF81CE009920A93CDF804B0CDF8EB
:1003080008A00394CDF810800897CDF82C900D958F
:1003180000F00EFB3046294600F054FB2946102019
:1003280000F0A4F92946102000F022FA11B0BDE827
:10033800F08F00BF900400208860024078270008F2
:10034800147400402DE9F047234B244EDFF89090B9
:10035800DFF89080002490B004221946204683E8F4
:100368001400DC6000F064F9304600F049FA012519
:100378004FF0060C4FF0400E4FF480724FF40033EC
:10038800304601A94FF0606A4FF48067CDF814C079
:10039800CDF810E00A920B930894099406940C94F3
:1003A8000E940F94CDF804A0CDF80890CDF80C80E9
:1003B80007970D9500F0BCFA3046294600F002FB7D
:1003C8002046294600F052F92046294600F0D0F987
:1003D80010B0BDE8F08700BF90040020A060024084
:1003E80010740040B827000870B50C4B4FF4106229
:1003F800194600240426802510201E605D60DC60FC
:100408009A6000F015F91020012100F02FF920461C
:100418004FF48071BDE8704000F07CB99004002072
:1004280070B50C4B00244FF4206219460425204671
:1004380040265E601D60DC609A6000F0F9F8204696
:10044800012100F013F9284647F6F071BDE8704025
:1004580000F050B990040020364B37481A68002144
:1004680042F001021A6099601A6822F0847222F43C
:1004780080321A6058601A6882B022F480221A60AA
:10048800D960009101911A6842F480321A601A46C4
:1004980003E0009BB3F5A06F09D0136803F40033A1
:1004A8000193009B01330093019B002BF1D0214B5A
:1004B8001B6813F4003318BF01230193019B012B20
:1004C80005D01E4B4FF000629A6002B07047194B7E
:1004D8001B491A6C1B4842F080521A640A6842F49D
:1004E80080420A609A689A609A6842F400429A6068
:1004F8009A6842F4A0529A6058601A6842F0807272
:100508001A601A4611680B4B8901FBD50E4A40F256
:10051800056111609A6822F003029A609A6842F0B5
:1005280002029A601A46936803F00C03082BFAD16A
:10053800C7E700BF003802401030002400ED00E09B
:100548000070004008544007003C02401848836887
:1005580003F00C03042B28D0082B09D0154B144AA0
:1005680015499268C2F303128A5CD3400B61704745
:100578004368416813F4800F436818BF0F4801F0BF
:100588003F020CBF0B49B0FBF2F1C3F3881308BF5D
:10059800B1FBF2F101FB03F2054B5B68C3F30143C6
:1005A80001335B00B2FBF3F3D9E7044BD7E700BF95
:1005B800003802400024F4000800002000127A00ED
:1005C800704700BFFEE700BFFEE700BFFEE700BFC1
:1005D800FEE700BF704700BF704700BF704700BF0D
:1005E800704700BF08B5012000F03EFB00B908BD08
:1005F800064B074A002119701378B3FA83F35B0995
:1006080013700120BDE8084000F03CBB0400002046
:100618008C04002008B54FF00050012100F01CFEAA
:100628004FF000500021BDE8084000F015BE00BFA3
:10063800F0B491E8C000094D8C68CB682A6847EA95
:1006480006010C4340F6FE7123438140834022EAB1
:10065800010213432B60F0BC704700BF00740040D8
:100668000023036043608360C360704739B907495A
:1006780001230A68834022EA03030B607047034999
:1006880001230A68834013430B60704700740040DD
:1006980041B9084900094A680123834022EA030353
:1006A8004B607047034900094A680123834013439C
:1006B8004B60704700740040054A536818B923F02E
:1006C80003035360704743F003035360704700BF50
:1006D8000074004032B9064A1368814023EA0101D8
:1006E80011607047024A13688140194311607047CE
:1006F8000074004082B00022054B01920193019BD7
:10070800083318440190019B196002B0704700BF7C
:100718000074004082B00022054B01920193019BB6
:10072800143318440190019B196002B0704700BF50
:10073800007400400828044B0CBF42EA012242EA38
:100748000142C250704700BF2074004082B00022AE
:10075800064B01920193019B2C3303EB900001900F
:10076800019B186880B202B0704700BF0074004057
:1007780041B908494FF480530A68834022EA0303C9
:100788000B60704703494FF480530A688340134352
:100798000B6070470074004032B9064A1368814004
:1007A80023EA010111607047024A13688140194326
:1007B8001160704700740040034B5B6B8140194225
:1007C80014BF01200020704700740040014B814095
:1007D8005963704700740040054B1A685B6B814091
:1007E80011EA030003D0114214BF01200020704712
:1007F80000740040014B8140596370470074004009
:1008080002683749002310B422F0010221248842EB
:100818000260036043608360C360036144614DD03C
:10082800304B984235D0304B984239D02F4B9842B4
:100838003DD02F4B984247D02E4B984248D02E4B54
:1008480098421DD02D4B98421ED02D4B984243D034
:100858002C4B98421DD02C4B984221D02B4B9842C0
:1008680025D02B4B98422FD02A4B984230D02A4B78
:10087800984205D0294B984206D05DF8044B704742
:10088800274A43F8942CF8E74FF03D5243F8AC2C34
:10089800F3E74FF4746243F8202C5DF8044B70477B
:1008A8004FF4741243F8382C5DF8044B70474FF03E
:1008B800746243F8502C5DF8044B7047194B5DF88F
:1008C800044B3D229A607047174A43F8642CD4E7DA
:1008D800164A43F87C2CD0E73D2243F8082CCCE795
:1008E80010600240286002404060024058600240A8
:1008F8007060024088600240A0600240B860024018
:100908001064024028640240406402405864024077
:100918007064024088640240A0640240B8640240E7
:1009280000003D20006002403D000020400F0020F4
:100938002DE9F04182B08B6A0193CB684F698E69CB
:10094800CD690C6A4A6AD0F800C0DFF850E09846D2
:100958000B6848EA030848EA07073E4335432C4337
:10096800019B0E6B0D69224313434A6B4C6813437A
:100978008A6B0CEA0E0E134343EA0E0303604269C6
:10098800CB6A896822F00702334313434361456009
:100998008460C16002B0BDE8F08100BF3F801CF0F8
:1009A8000023036043608360C36003614361836124
:1009B800C361036243628362C36203634363836305
:1009C800704700BF036819B923F00103036070473B
:1009D80043F0010303607047036819B923F4004327
:1009E8000360704743F4004303607047036819B914
:1009F80023F020030360704743F02003036070472F
:100A080041607047406880B2704700BF036822B9F0
:100A180023F4002303600161704743F4002303605B
:100A280001617047036819B923F480230360704794
:100A380043F48023036070470AB9C16070470161BD
:100A4800704700BF0068C0F3C0407047006800F0FE
:100A580001007047406900F0380070470B4B0C4AA2
:100A680010B40C4CA04294BF184610468B004CBFE3
:100A7800436803685DF8044B21F0F02121F08211EE
:100A8800194214BF01200020704700BF00600240D7
:100A9800006402400F64024010B4094B094C0A4A32
:100AA800A04294BF1846104611F0005F21F0F021D3
:100AB80021F0821114BFC16081605DF8044B70475A
:100AC800006002400F640240006402400B060CD52F
:100AD8004369AAB143F08003802943610FD00368BA
:100AE80001F01E01194301607047802907D0002AD0
:100AF800F5D1036801F01E0123EA01010160704786
:100B080023F0800380294361F3D1704770B4104A01
:100B1800104E114C21F0F02323F0C315B04298BFBA
:100B280014468DB1006800F01E0000EAD122890049
:100B38004CBF6068206823F08213184002D0101C54
:100B480018BF012070BC7047406900F08002EEE7D2
:100B5800006002400F6402400064024010B4094B78
:100B6800094C0A4AA04294BF1846104611F0005F8B
:100B780021F0F02121F0821114BFC16081605DF87D
:100B8800044B7047006002400F640240006402405A
:100B9800044B054900221A605A609A60DA6059616C
:100BA800704700BF003C0140FFFF7F00837933B3EB
:100BB8001C4B02794179F0B404681E68E7433E4053
:100BC8001E605D6802F1804202F59E323D405D6024
:100BD80015682C43146002689C68D5432C409C60BF
:100BE800D868102900EA0500D86013D001F18043C5
:100BF80003F59E33F0BC19680A431A6070470379FD
:100C0800016803F1804303F59E331A6822EA010262
:100C18001A607047996811439960D9680A43DA6085
:100C2800F0BC7047003C014000230C224271036075
:100C380003718371704700BF024A1369184310613A
:100C4800704700BF003C0140034B5B69184214BF6A
:100C580001200020704700BF003C0140014B586153
:100C6800704700BF003C0140054B1A685B690340B0
:100C780004D0104214BF0120002070471846704766
:100C8800003C0140014B5861704700BF003C0140E7
:100C980008B53C4B984224D03B4B98422BD03B4B59
:100CA800984232D03A4B984239D03A4B984240D089
:100CB800394B984247D0394B98424ED0384B9842DE
:100CC80055D0384B984200D008BD4FF480700121B0
:100CD80000F09EFA4FF480700021BDE8084000F053
:100CE80097BA0120014600F093FA01200021BDE8DF
:100CF800084000F08DBA0220012100F089FA022094
:100D08000021BDE8084000F083BA0420012100F06A
:100D18007FFA04200021BDE8084000F079BA0820D5
:100D2800012100F075FA08200021BDE8084000F014
:100D38006FBA1020012100F06BFA10200021BDE8E5
:100D4800084000F065BA2020012100F061FA202057
:100D58000021BDE8084000F05BBA4020012100F006
:100D680057FA40200021BDE8084000F051BA802021
:100D7800012100F04DFA80200021BDE8084000F074
:100D880047BA00BF000002400004024000080240C9
:100D9800000C0240001002400014024000180240FB
:100DA800001C02400020024000222DE9F0431346B7
:100DB800D1F800E001274FF0030C04E00133102BB9
:100DC80002F1020228D007FA03F404EA0E05A5424C
:100DD800F4D1D0F800800E790CFA02F4E44304EA66
:100DE8000808C0F80080D0F8008006FA02F9013E31
:100DF80049EA0808012EC0F800800FD9C568CE79E5
:100E08002C40C460C56806FA02F401332C43102B49
:100E1800C46002F10202D6D1BDE8F083D0F8089090
:100E280091F805808E7904EA0909C0F80890D0F88D
:100E3800089008FA02F848EA0908C0F80880D0F8CB
:100E4800048028EA05054560D0F8048006FA03F511
:100E5800ADB245EA08054560D0E700BF00234FF66C
:100E6800FF720260037143718371C371704700BFE1
:100E780082B04FF480330193019B0B430193019B94
:100E8800C361C161019BC361C3690193C3690193D4
:100E980002B070470369194214BF0120002070474F
:100EA800006980B2704700BF4369194214BF01202E
:100EB80000207047406980B2704700BF01837047C7
:100EC800418370470AB9418370470183704700BF67
:100ED800416170474369594041617047CB0800EB55
:100EE800830001F0070110B48900046A0F238B40C6
:100EF80024EA03030362036A5DF8044B8A40134340
:100F0800036270470A4B0B481A68002142F001023D
:100F18001A6099601A6822F0847222F480321A608A
:100F280058601A6822F480221A60D960704700BF9E
:100F38000038024010300024024B00221A7018704A
:100F4800704700BF0238024082B000230A4A01936A
:100F580002E0B3F5A06F08D0136813F4003F019BBB
:100F680003F101030193019BF3D0034B1868C0F30D
:100F7800404002B0704700BF00380240034A13687F
:100F880023F0F80343EAC0001060704700380240BD
:100F9800014B1860704700BF00004742064B002213
:100FA80001281A701A7005D0042802D105221A7077
:100FB800704770471870704770380240014B1860CE
:100FC800704700BF800E474230B4029C064D40EA8D
:100FD800046001435B08013B41EA821242EA034094
:100FE800686030BC704700BF00380240014B186091
:100FF800704700BF600047420907034B41EA801071
:10100800C3F88400704700BF00380240014B1860E5
:10101800704700BF68004742014B1860704700BF27
:101028004C004742034A936823F0EC631943084392
:101038009060704700380240034A936823F0784371
:10104800194308439060704700380240034A936888
:1010580023F0030318439060704700BF0038024034
:10106800024B986800F00C00704700BF003802403F
:10107800034A936823F0F00318439060704700BF59
:1010880000380240034A936823F4E0531843906001
:10109800704700BF00380240034A936823F4604356
:1010A80043EAC000906070470038024010B4214CF9
:1010B800A36803F00C03042B1BD0082B1CD01E4B79
:1010C80003601C4A1D499468C4F303140C5DE34093
:1010D80043609468C4F382240C5D23FA04F48460AA
:1010E80092685DF8044BC2F342328A5CD340C36015
:1010F8007047134B0360E4E76368616813F4800F7B
:10110800636818BF0E4C01F03F020CBF0A49B4FBDC
:10111800F2F1C3F3881308BFB1FBF2F101FB03F24C
:10112800044B5B68C3F3014301335B00B2FBF3F389
:101138000360C6E7003802400024F4001C000020C9
:1011480000127A0000F44073B3F5407F09D10849D2
:101158008B6820F0704223F4F81322F44072134392
:101168008B60034A136FC0F30B0018431067704776
:1011780000380240014B1860704700BF3C0E4742E0
:10118800014B1860704700BF400E4742014B186082
:10119800704700BF5C014742044A136B19B923EA40
:1011A800000010637047184310637047003802400E
:1011B800044A536B19B923EA000050637047184377
:1011C8005063704700380240044A936B19B923EA08
:1011D80000009063704718439063704700380240DE
:1011E800044A136C19B923EA0000106470471843C5
:1011F8001064704700380240044A536C19B923EA56
:10120800000050647047184350647047003802402B
:10121800044A136919B923EA00001061704718439A
:101228001061704700380240044A536919B923EA2B
:101238000000506170471843506170470038024001
:10124800044A936919B923EA00009061704718436A
:101258009061704700380240044A136A19B923EABA
:10126800000010627047184310627047003802404F
:10127800044A536A19B923EA0000506270471843B8
:101288005062704700380240044A136D19B923EAC6
:101298000000106570471843106570470038024019
:1012A800044A536D19B923EA000050657047184382
:1012B8005065704700380240044A936D19B923EA13
:1012C80000009065704718439065704700380240E9
:1012D800044A136E19B923EA0000106670471843D0
:1012E8001066704700380240044A536E19B923EA61
:1012F8000000506670471843506670470038024037
:10130800044A137819B923EA00001070704718438B
:10131800107070470D3802404309012B0BD0022B87
:10132800094B0CBF1A6F5A6F00F01F0322FA03F023
:1013380000F001007047044B1A6800F01F0322FAFE
:1013480003F000F00100704700380240024A536F72
:1013580043F080735367704700380240034BDB68E3
:10136800184214BF01200020704700BF0038024017
:10137800014B1870704700BF0E38024008B54FF493
:1013880080400121FFF774FF4FF480400021BDE841
:101398000840FFF76DBF00BF014B1860704700BFE2
:1013A8000038014001F0FC0303F1804303F59C334E
:1013B80001F0030110B489009C680F228A4024EAD6
:1013C80002029A609A685DF8044B884002439A606A
:1013D800704700BF014B1860704700BFDC00274210
:1013E800014B1860704700BF00042742024B186A7F
:1013F800C0F30020704700BF0038014008B5604BBB
:10140800984235D0B0F1804F3CD05E4B984243D0E3
:101418005D4B98424AD05D4B984251D05C4B984204
:1014280058D05C4B98425FD05B4B984266D05B4B80
:1014380098426DD05A4B984276D05A4B98427FD0FA
:10144800594B984200F08880584B984200F08E80A3
:10145800574B984200D008BD4FF480700121FFF728
:10146800FBFE4FF480700021BDE80840FFF7F4BE92
:1014780001200146FFF7FCFE01200021BDE80840DD
:10148800FFF7F6BE01200146FFF7E6FE0120002126
:10149800BDE80840FFF7E0BE02200121FFF7DCFEAF
:1014A80002200021BDE80840FFF7D6BE0420012134
:1014B800FFF7D2FE04200021BDE80840FFF7CCBEAC
:1014C80008200121FFF7C8FE08200021BDE80840D8
:1014D800FFF7C2BE10200121FFF7BEFE1020002139
:1014E800BDE80840FFF7B8BE20200121FFF7B4FE91
:1014F80020200021BDE80840FFF7AEBE02200121F0
:10150800FFF7B6FE02200021BDE80840FFF7B0BE95
:101518004FF480300121FFF7ABFE4FF480300021FB
:10152800BDE80840FFF7A4BE4FF400300121FFF7E3
:101538009FFE4FF400300021BDE80840FFF798BE39
:101548004FF480200121FFF793FE4FF48020002103
:10155800BDE80840FFF78CBE40200121FFF77CFE64
:1015680040200021BDE80840FFF776BE8020012119
:10157800FFF772FE80200021BDE80840FFF76CBE2F
:10158800000001400004004000080040000C00403A
:1015980000100040001400400004014000400140D9
:1015A800004401400048014000180040001C004071
:1015B80000200040224A038890429BB212D002F5D4
:1015C800806290420ED0B0F1804F0BD0A2F58032ED
:1015D800904207D002F58062904203D002F5806203
:1015E800904203D14A8823F070031343154A90426E
:1015F8001ED002F5806290421AD00A8970B423F492
:1016080040730F4C4E680D889BB21343A042038071
:10161800C662058506D00C4B984203D0012383820D
:1016280070BC70478B7A03860123838270BC704735
:1016380003800B884A68C26203850123838270474E
:1016480000000140001000400004014000234FF05A
:10165800FF3242600380038143808372704700BF7A
:1016680001858282704700BF038823F070031B0442
:101678001B0C19430180704741627047C162704773
:10168800406A7047008D80B2704700BF038829B94F
:1016980023F002031B041B0C038070479BB243F02A
:1016A80002030380704700BF038829B923F00403AD
:1016B8001B041B0C038070479BB243F00403038098
:1016C800704700BF038829B923F080031B041B0C53
:1016D800038070479BB243F080030380704700BFCC
:1016E800038823F008031B041B0C038003889BB2A8
:1016F80019430180704700BF038823F440731B041B
:101708001B0C038003889BB219430180704700BFFC
:10171800038829B923F001031B041B0C03807047BD
:101728009BB243F001030380704700BFF0B5048CFF
:10173800B1F802C08B890F881B4E24F001042404E1
:10174800240C0484058CB0F804E0048B25F0020511
:1017580024F073022D042D0C4CEA030312042B43CE
:10176800120CB0429BB21FFA8EF442EA070208D06C
:101778000E4DA84205D089688480028341630384A2
:10178800F0BDCE89B1F812E00D8A8F8823F00803E6
:1017980024F4407433434EEA050523F004032C4334
:1017A8003B43A4B2E7E700BF00000140000401404A
:1017B800F0B5058C0C88B1F80CC0B1F802E01E4EEB
:1017C80025F010052D042D0C0584028C8788058BC7
:1017D80022F020031B0425F4E6421B0C120443EA02
:1017E8000C13120C43EA0E1342EA0422B0429BB2D5
:1017F800BDB294B208D0114A904205D08A6885805B
:10180800048382630384F0BD23F08002CB89B1F89E
:1018180010E08F884E8A92B242EA031225F440659E
:101828004FF6BF73134045EA8E0543EA071345EAAE
:1018380086059BB2ADB2E1E700000140000401401B
:10184800F0B5058CB1F80CC0B1F802E00C881E4F59
:1018580025F480752D042D0C0584028C8688858BD3
:1018680022F400731B0425F073021B0C43EA0C23BB
:10187800120443EA0E23120CB8429BB2B5B244EAF2
:10188800020408D0114A904205D08A688580848372
:10189800C2630384F0BD23F40062CB89B1F810E081
:1018A8008F884E8A92B242EA032225F440554FF6B9
:1018B800FF33134045EA0E1543EA072345EA0615A8
:1018C8009BB2ADB2E1E700BF000001400004014057
:1018D800028CB1F802C022F480521204120C2DE9D5
:1018E800F041B1F80C80B1F800E00284058C8788DB
:1018F800828B124E25F4005422F4E6432404240C6F
:101908001B0444EA08341B0C44EA0C3443EA0E2353
:10191800B042A4B2BAB29BB209D0094DA84206D0CF
:1019280089688280838301640484BDE8F0810D8A1C
:1019380022F4804242EA851292B2F1E700000140A7
:1019480000040140002303804380838083608381F7
:10195800C38103824382704710B4048C0123A4B26C
:101968008B4024EA030321F00804038418307CB177
:101978000439C1F34E0148F6FF730C5823400B504D
:1019880012020B585DF8044B92B21A430A50704782
:1019980049084FF68F7344582340435043585DF825
:1019A800044B1A4342507047416370478163704744
:1019B800C163704701647047038B23F070031B04F5
:1019C8001B0C194301837047038B23F4E0431B046A
:1019D8001B0C43EA012189B201837047838B23F0F2
:1019E80070031B041B0C194381837047838B23F4FA
:1019F800E0431B041B0C43EA012189B28183704731
:101A0800038B23F008031B041B0C19430183704745
:101A1800038B23F400631B041B0C43EA012189B2E6
:101A280001837047838B23F008031B041B0C1943A5
:101A380081837047838B23F400631B041B0C43EAE8
:101A4800012189B281837047038B23F004031B04AF
:101A58001B0C194301837047038B23F480631B0419
:101A68001B0C43EA012189B201837047838B23F061
:101A780004031B041B0C194381837047838B23F4D5
:101A880080631B041B0C43EA012189B281837047E0
:101A9800038B23F080031B041B0C1943018370473D
:101AA800038BC3F30E0343EA012189B20183704714
:101AB800838B23F080031B041B0C1943818370471D
:101AC800838BC3F30E0343EA012189B281837047F4
:101AD800038C23F002031B041B0C19430184704779
:101AE800038C23F008031B041B0C19430184704763
:101AF800038C23F020031B041B0C43EA011189B259
:101B080001847047038C23F080031B041B0C43EAF9
:101B1800011189B201847047038C23F400731B04FC
:101B28001B0C43EA012189B201847047038C23F41A
:101B380000631B041B0C43EA012189B2018470472E
:101B4800038C23F400531B041B0C43EA013189B2B4
:101B58000184704710B4048C0123A4B28B4024EA9A
:101B680003030384038C5DF8044B8A4013439BB240
:101B78000384704710B4048C0423A4B28B4024EA75
:101B880003030384038C5DF8044B8A4013439BB220
:101B9800038470470B88F0B5002B32D0042B57D044
:101BA800082B00F08380028C4F88B1F804E00E897E
:101BB800CD8822F480521204120C0284848B028C89
:101BC80024F4407122F4005309055B04090D5B0CF1
:101BD80041EA0E2143EA073341EA06319BB243F456
:101BE800805389B281830384828B22F44062120479
:101BF800120C8283838B9BB243EA05239BB28383B7
:101C0800F0BD028C4E888D880B89CC8822F00102A9
:101C18001204120C0284028B018C92B222F0F3029D
:101C280021F00A0142EA0313090446F001029BB2BB
:101C3800090C2B43114303830184038B23F00C030A
:101C48001B041B0C0383038B9BB21C430483F0BD52
:101C5800058C4F888E88B1F808E0CC8825F01001F3
:101C68000904090C0184028B018C22F440731B05C2
:101C78001B0D8AB243EA0E3322F0A0029BB242EA5D
:101C8800071243EA062392B29BB242F01002038382
:101C98000284038B23F440631B041B0C0383038B14
:101CA8009BB243EA04239BB20383F0BD068C4F88A2
:101CB8008D880A89CC8826F480710904090C01846E
:101CC800818B038C89B29BB221F0F30123F420634A
:101CD80041EA021243EA072392B29BB243F48073AB
:101CE8002A4382830384838B23F00C031B041B0C7D
:101CF8008383838B9BB21C438483F0BD0023012222
:101D0800828003804380C38003817047B1F802C09A
:101D18000B88F0B5B1F804E0BCF1000F0CBF022449
:101D28000024BEF1010F0CBF02250125002B4BD06A
:101D3800038C0E89C98823F010031B041B0C038431
:101D4800028B078C22F440731B051B0DBAB243EAC1
:101D5800063322F0A0029BB242EA0C1243EA0E2399
:101D680092B29BB242F0100203830284038B23F4E5
:101D780040631B041B0C0383038B9BB243EA0123C0
:101D88009BB20383038C23F001031B041B0C038405
:101D9800038B028C9BB223F0F30392B243EA06163C
:101DA80022F00A0343F00103B6B21C432E43068314
:101DB8000484038B23F00C031B041B0C0383038B89
:101DC8009BB219430183F0BD038C0F89CE8823F0A1
:101DD80001031B041B0C0384018B038C89B221F0C3
:101DE800F30123F00A0341EA07111B044CF0010236
:101DF80089B21B0C134341EA0E0EA0F818E00384C5
:101E0800038B23F00C031B041B0C0383038B9BB273
:101E180033430383038C23F010031B041B0C03843C
:101E2800028B018C22F440731B051B0D8AB243EA16
:101E3800073322F0A0029BB242F0100243EA0525C4
:101E480042EA041405830484038B23F440631B04CF
:101E58001B0C0383038B9BB243EA0626B6B20683A8
:101E6800F0BD00BF406B7047806B7047C06B704718
:101E7800006C7047038B23F00C031B041B0C0383BB
:101E8800038B9BB219430183704700BF038B23F474
:101E980040631B041B0C0383038B9BB243EA0121A1
:101EA80089B20183704700BF838B23F00C031B04A6
:101EB8001B0C8383838B9BB219438183704700BFBC
:101EC800838B23F440631B041B0C8383838B9BB29B
:101ED80043EA012189B28183704700BFF0B50B88BE
:101EE800B1F802E08F88CE880D894C898A894EEA3C
:101EF80003033B4333432B43234313439BB2A0F8D1
:101F08004430F0BD0023038043808380C380038175
:101F180043818381704700BFB0F8443021B9C3F3CF
:101F28000E03A0F8443070476FEA43436FEA534307
:101F38009BB2A0F844307047838829B923F0040382
:101F48001B041B0C838070479BB243F004038380FF
:101F5800704700BF838829B923F001031B041B0CB9
:101F6800838070479BB243F001038380704700BFB2
:101F780083899BB21AB923EA010181817047194309
:101F88008181704781827047038A194214BF0120FA
:101F980000207047C94389B201827047038A828949
:101FA80011EA030092B203D0114214BF01200020AD
:101FB800704700BFC94389B2018270470A43A0F83D
:101FC8004820704783899BB21AB923EA01018181AD
:101FD8007047194381817047838829B923F0080322
:101FE8001B041B0C838070479BB243F0080383805B
:101FF800704700BF038923F007031B041B0C0381F0
:10200800704700BF038923F070031B041B0C19439E
:10201800018103899BB243F007030381704700BF26
:10202800602930B4048C24D024F001042404240C46
:102038000484048B058CA4B224F0F304ADB244F0FC
:10204800010425F00A0544EA031345F001049BB294
:10205800224303830284038923F070031B041B0CAF
:102068000B43038103899BB243F00703038130BC10
:10207800704724F010042404240C0484048B058C79
:1020880024F440742405ADB2240D25F0A00544F4D1
:10209800807445F0100544EA033345EA02129BB206
:1020A80092B203830284D6E710B4048942EA032378
:1020B800E4B223439BB21943018103895DF8044BC1
:1020C80023F077031B041B0C43F07703038170474D
:1020D80010B4048942EA0323E4B223439BB21943B0
:1020E800018103895DF8044B9BB243F4804303816B
:1020F800704700BF038923F070031B041B0C1943AE
:1021080001817047838823F070031B041B0C8380B4
:1021180083889BB219438180704700BF038923F0ED
:1021280007031B041B0C038103899BB2194301811C
:10213800704700BF038923F080031B041B0C038135
:1021480003899BB219430181704700BF10B4048909
:10215800E4B221430A4342EA032399B201815DF8BC
:10216800044B704770B40689048B058C24F44074C2
:1021780024F00304ADB225F0220526F00706240456
:102188002A433604240C360C44F4807442EA0313C0
:10219800314344F001049AB201810483028470BC83
:1021A800704700BF838829B923F080031B041B0CE8
:1021B800838070479BB243F080038380704700BFE1
:1021C800A0F85010704700BF40F0BF60024B40F4C9
:1021D8000030D860704700BF00ED00E0C3785BB9FD
:1021E800037818485A09203203F01F03012101FA25
:1021F80003F340F822307047134BF0B4D9684578A0
:10220800827804780F4EC943C1F30221C1F1040753
:10221800FFB20F23BD400B411340E9B20B4304F159
:10222800604202F561421B01DBB282F80033037899
:10223800012203F01F015B098A4046F82320F0BC05
:10224800704700BF00E100E000ED00E021F06041D0
:1022580021F07F01014B08439860704700ED00E0D2
:10226800044A136919B923EA00001061704718433A
:102278001061704700ED00E0044A136804280CBFA1
:1022880043F0040323F004031360704710E000E0F8
:1022980030B50F4C054683B054F82000012104EBFB
:1022A8004504FEF779FF0B4A238A52F8250000936C
:1022B80002220123002469468DF804308DF8073086
:1022C8008DF806408DF80520FEF76EFD03B030BD91
:1022D800C02700082C000020044B054A03EB4003EC
:1022E80052F820201B8A1383704700BFC0270008BC
:1022F8002C000020044B054A03EB400352F8202031
:102308001B8A5383704700BFC02700082C00002099
:10231800054B064A52F8202003EB40005369018A16
:102328004B405361704700BFC02700082C000020B5
:1023380030B50446012087B00D460146FEF72CFF54
:102348004FF480400121FEF757FF184806A900EB1B
:1023580084000123002441F8103D00698DF80C40E9
:102368008DF80F40FEF720FD012D01D007B030BDDC
:1023780021462046FFF716F8082304A88DF81530E3
:1023880004958DF814408DF81650FEF70FFC0F23B6
:10239800062201A88DF807508DF804208DF8053025
:1023A8008DF80630FFF71AFF07B030BD2C0000206B
:1023B80008B5044B03EB800001210069FEF76AFDB4
:1023C80008BD00BF2C0000202828000800000020BD
:1023D8006C04002070040020A404002070B5194883
:1023E800194C1A4E82B00121FEF7D6FE4FF000506C
:1023F8000121FEF7F5FE0025302203231448009240
:1024080069468DF804308DF80750FEF7CDFCFDF7CE
:102418001FFF28460121FFF78BFF01252378002B9A
:10242800FCD1FEF7F7F83378012B05D0FDF7F8FF5C
:10243800FDF7DAFF2570F1E7FDF784FFFDF72CFFC4
:102448002570EBE701002000040000208C04002028
:1024580000000240002103E00B4B5B58435004315D
:102468000A480B4B42189A42F6D30A4A02E0002364
:1024780042F8043B084B9A42F9D3FDF7EDFF00F010
:102488001FF8FFF7ABFF704728280008000000205E
:102498006C04002070040020A4040020FEE7000063
:1024A80008B50021044600F08BF8044B1868C36B8C
:1024B80003B19847204600F0A9F900BFF4270008A7
:1024C80070B50F4E0F4D761BB61018BF002405D0FF
:1024D800013455F8043B9847A642F9D10A4E0B4DF2
:1024E800761B00F087F9B61018BF002406D0013417
:1024F80055F8043B9847A642F9D170BD70BD00BF9E
:102508001C2800081C280008242800081C2800088B
:1025180070B4840746D0541E002A41D0CDB2034679
:1025280002E0621EE4B3144603F8015B9A07F8D18F
:10253800032C2ED9CDB245EA05250F2C45EA0545D1
:1025480019D903F110022646103E0F2E42F8105CEE
:1025580042F80C5C42F8085C42F8045C02F1100294
:10256800F2D8A4F1100222F00F0204F00F04103286
:10257800032C13440DD91E462246043A032A46F872
:10258800045BFAD8221F22F003020432134404F039
:1025980003042CB1C9B21C4403F8011BA342FBD1AC
:1025A80070BC704714460346C2E700BF024B13B124
:1025B800024800F06FB8704700000000A926000824
:1025C8002DE9F04F314B83B01B68009303F5A473DA
:1025D80081460E460193009BD3F8487127B3DDF876
:1025E80004A07C68651E0ED4013407EB84044FF008
:1025F8000008E6B1D4F80031B34218D0013D6B1C95
:10260800A4F10404F5D1224B73B17B68002B36D1B9
:102618003B68002B34D03846CAF80030AFF300804E
:10262800DAF80070002FDCD103B0BDE8F08F7B68CA
:102638002268013BAB420CBF7D60C4F80080002AD1
:10264800DCD0D7F88831D7F804B00121A940194265
:1026580008D190477B685B45BDD1DAF80030BB42B2
:10266800CCD0B8E7D7F88C31194204D14846D4F811
:1026780080109047EEE7D4F880009047EAE73B687F
:10268800BA461F46002FACD1CEE700BFF42700089A
:1026980000000000014600200246034600F016B87C
:1026A80038B5084B084DED1AAC1018BFED1805D019
:1026B800013C55F8043D9847002CF9D1BDE8384055
:1026C80000F09EB824280008282800082DE9F047C3
:1026D800254C2568D5F848410646884692469946CD
:1026E800CCB360681F2818DC431C7EB104EB80055E
:1026F8000121C5F888A0D4F8887101FA00F21743BF
:10270800022EC4F88871C5F808911ED002306360A3
:1027180044F820800020BDE8F087144B03B34FF441
:10272800C870AFF300800446D0B1D5F8483100270F
:1027380080E88800C5F8484138460123C4F8887104
:10274800C4F88C71002EE1D0D0E7D4F88C110A437C
:10275800C4F88C21DAE705F5A674C5F84841C0E746
:102768004FF0FF30BDE8F087F427000800000000B4
:10277800FF078F090F0B710CAA0DA60E630FD80F58
:10278800FF0FD80F630FA60EA70D710C0F0B8F0943
:10279800FF076F06EF048D03570258019B002600C0
:1027A800000026009B00580157028D03EF046F06B6
:1027B80000336699CCFF0000080000000800000004
:1027C8000800000008000000001000200040008001
:1027D80006000000000000000000000001000000EA
:1027E800010000000100000043000000400000203C
:1027F80000000000F8B500BFF8BC08BC9E46704752
:0C280800F8B500BFF8BC08BC9E46704745
:08281400D0D9FF7F0100000094
:08281C00B5250008AD0100081C
:04282400890100081E
:10282800000000000100000000000000000000009F
:102838000102030406070809007A030A00000000E1
:10284800010203040102030406070809000C024000
:10285800000C0240000C0240000C02400000024044
:10286800000000002C03002094030020FC0300203B
:102878000000000000000000000000000000000050
:102888000000000000000000000000000000000040
:1028980000000000F0270008000000000000000011
:1028A8000000000000000000000000000000000020
:1028B8000000000000000000000000000000000010
:1028C8000000000000000000000000000000000000
:1028D80000000000000000000000000000000000F0
:1028E80000000000000000000000000000000000E0
:1028F80000000000000000000000000000000000D0
:1029080000000000000000000100000000000000BE
:102918000E33CDAB34126DE6ECDE05000B00000083
:10292800000000000000000000000000000000009F
:10293800000000000000000000000000000000008F
:10294800000000000000000000000000000000007F
:10295800000000000000000000000000000000006F
:0C2C8800000000000000000040000020E0
:042C9400000000003C
:040000050800245D6E
:00000001FF
